{
  "contractName": "PaymentGatewayContract",
  "abi": [
    {
      "constant": true,
      "inputs": [],
      "name": "owner",
      "outputs": [
        {
          "name": "",
          "type": "address"
        }
      ],
      "payable": false,
      "stateMutability": "view",
      "type": "function"
    },
    {
      "constant": false,
      "inputs": [
        {
          "name": "_newOwner",
          "type": "address"
        }
      ],
      "name": "transferOwnership",
      "outputs": [],
      "payable": false,
      "stateMutability": "nonpayable",
      "type": "function"
    },
    {
      "inputs": [
        {
          "name": "_gatewayFee",
          "type": "uint256"
        },
        {
          "name": "_beneficiary",
          "type": "address"
        }
      ],
      "payable": false,
      "stateMutability": "nonpayable",
      "type": "constructor"
    },
    {
      "payable": true,
      "stateMutability": "payable",
      "type": "fallback"
    },
    {
      "anonymous": false,
      "inputs": [
        {
          "indexed": false,
          "name": "merchant",
          "type": "address"
        }
      ],
      "name": "AddMerchantEvent",
      "type": "event"
    },
    {
      "anonymous": false,
      "inputs": [
        {
          "indexed": false,
          "name": "_merchant",
          "type": "address"
        },
        {
          "indexed": false,
          "name": "_reference",
          "type": "string"
        },
        {
          "indexed": false,
          "name": "_tokenAmount",
          "type": "uint256"
        }
      ],
      "name": "PaymentMadeInTokensEvent",
      "type": "event"
    },
    {
      "anonymous": false,
      "inputs": [
        {
          "indexed": false,
          "name": "_walletAddress",
          "type": "address"
        },
        {
          "indexed": false,
          "name": "_amount",
          "type": "uint256"
        }
      ],
      "name": "WithdrawGatewayFundsEvent",
      "type": "event"
    },
    {
      "anonymous": false,
      "inputs": [
        {
          "indexed": true,
          "name": "previousOwner",
          "type": "address"
        },
        {
          "indexed": true,
          "name": "newOwner",
          "type": "address"
        }
      ],
      "name": "OwnershipTransferred",
      "type": "event"
    },
    {
      "constant": false,
      "inputs": [
        {
          "name": "_tokenContractAddress",
          "type": "address"
        }
      ],
      "name": "setTokenContract",
      "outputs": [],
      "payable": false,
      "stateMutability": "nonpayable",
      "type": "function"
    },
    {
      "constant": true,
      "inputs": [],
      "name": "getTokenContractAddress",
      "outputs": [
        {
          "name": "",
          "type": "address"
        }
      ],
      "payable": false,
      "stateMutability": "view",
      "type": "function"
    },
    {
      "constant": false,
      "inputs": [
        {
          "name": "_walletAddress",
          "type": "address"
        }
      ],
      "name": "addMerchant",
      "outputs": [],
      "payable": false,
      "stateMutability": "nonpayable",
      "type": "function"
    },
    {
      "constant": false,
      "inputs": [
        {
          "name": "_merchantAddress",
          "type": "address"
        },
        {
          "name": "_reference",
          "type": "string"
        },
        {
          "name": "_tokenAmount",
          "type": "uint256"
        }
      ],
      "name": "makePaymentInTokens",
      "outputs": [],
      "payable": false,
      "stateMutability": "nonpayable",
      "type": "function"
    },
    {
      "constant": false,
      "inputs": [
        {
          "name": "_newFee",
          "type": "uint256"
        }
      ],
      "name": "setGatewayFee",
      "outputs": [],
      "payable": false,
      "stateMutability": "nonpayable",
      "type": "function"
    },
    {
      "constant": true,
      "inputs": [
        {
          "name": "_merchantAddress",
          "type": "address"
        }
      ],
      "name": "isExistingMerchant",
      "outputs": [
        {
          "name": "",
          "type": "bool"
        }
      ],
      "payable": false,
      "stateMutability": "view",
      "type": "function"
    }
  ],
  "bytecode": "0x608060405234801561001057600080fd5b506040516040806110848339810180604052810190808051906020019092919080519060200190929190505050336000806101000a81548173ffffffffffffffffffffffffffffffffffffffff021916908373ffffffffffffffffffffffffffffffffffffffff1602179055508160018190555080600360006101000a81548173ffffffffffffffffffffffffffffffffffffffff021916908373ffffffffffffffffffffffffffffffffffffffff16021790555060006002819055505050610fa6806100de6000396000f30060806040526004361061008e576000357c0100000000000000000000000000000000000000000000000000000000900463ffffffff16806322e45584146100fc57806346a0ff42146101535780636e9f7472146101805780638da5cb5b14610213578063bbcd5bbe1461026a578063bf76c0ef146102ad578063ce304484146102f0578063f2fde38b1461034b575b6040517f08c379a000000000000000000000000000000000000000000000000000000000815260040180806020018281038252600a8152602001807f426f756e6365204574680000000000000000000000000000000000000000000081525060200191505060405180910390fd5b34801561010857600080fd5b5061011161038e565b604051808273ffffffffffffffffffffffffffffffffffffffff1673ffffffffffffffffffffffffffffffffffffffff16815260200191505060405180910390f35b34801561015f57600080fd5b5061017e600480360381019080803590602001909291905050506103b8565b005b34801561018c57600080fd5b50610211600480360381019080803573ffffffffffffffffffffffffffffffffffffffff169060200190929190803590602001908201803590602001908080601f01602080910402602001604051908101604052809392919081815260200183838082843782019150505050505091929192908035906020019092919050505061042c565b005b34801561021f57600080fd5b506102286108f2565b604051808273ffffffffffffffffffffffffffffffffffffffff1673ffffffffffffffffffffffffffffffffffffffff16815260200191505060405180910390f35b34801561027657600080fd5b506102ab600480360381019080803573ffffffffffffffffffffffffffffffffffffffff169060200190929190505050610917565b005b3480156102b957600080fd5b506102ee600480360381019080803573ffffffffffffffffffffffffffffffffffffffff1690602001909291905050506109b6565b005b3480156102fc57600080fd5b50610331600480360381019080803573ffffffffffffffffffffffffffffffffffffffff169060200190929190505050610b1d565b604051808215151515815260200191505060405180910390f35b34801561035757600080fd5b5061038c600480360381019080803573ffffffffffffffffffffffffffffffffffffffff169060200190929190505050610b76565b005b6000600560009054906101000a900473ffffffffffffffffffffffffffffffffffffffff16905090565b6000809054906101000a900473ffffffffffffffffffffffffffffffffffffffff1673ffffffffffffffffffffffffffffffffffffffff163373ffffffffffffffffffffffffffffffffffffffff1614151561041357600080fd5b60648110151561042257600080fd5b8060018190555050565b6000806000858561043c81610bdd565b15151561044857600080fd5b61045182610b1d565b151561045c57600080fd5b61046586610c11565b151561047057600080fd5b61047986610d1a565b94506104858686610d3b565b9350849250600560009054906101000a900473ffffffffffffffffffffffffffffffffffffffff1673ffffffffffffffffffffffffffffffffffffffff16636e5089e1338a876040518463ffffffff167c0100000000000000000000000000000000000000000000000000000000028152600401808473ffffffffffffffffffffffffffffffffffffffff1673ffffffffffffffffffffffffffffffffffffffff1681526020018373ffffffffffffffffffffffffffffffffffffffff1673ffffffffffffffffffffffffffffffffffffffff1681526020018281526020019350505050602060405180830381600087803b15801561058357600080fd5b505af1158015610597573d6000803e3d6000fd5b505050506040513d60208110156105ad57600080fd5b8101908080519060200190929190505050507f61052ba846455d626b94b6ca75f12c7de1dbb1776c57b358d61a8a233ac55813888886604051808473ffffffffffffffffffffffffffffffffffffffff1673ffffffffffffffffffffffffffffffffffffffff16815260200180602001838152602001828103825284818151815260200191508051906020019080838360005b8381101561065b578082015181840152602081019050610640565b50505050905090810190601f1680156106885780820380516001836020036101000a031916815260200191505b5094505050505060405180910390a1600560009054906101000a900473ffffffffffffffffffffffffffffffffffffffff1673ffffffffffffffffffffffffffffffffffffffff16636e5089e133600360009054906101000a900473ffffffffffffffffffffffffffffffffffffffff16866040518463ffffffff167c0100000000000000000000000000000000000000000000000000000000028152600401808473ffffffffffffffffffffffffffffffffffffffff1673ffffffffffffffffffffffffffffffffffffffff1681526020018373ffffffffffffffffffffffffffffffffffffffff1673ffffffffffffffffffffffffffffffffffffffff1681526020018281526020019350505050602060405180830381600087803b1580156107b257600080fd5b505af11580156107c6573d6000803e3d6000fd5b505050506040513d60208110156107dc57600080fd5b8101908080519060200190929190505050507f61052ba846455d626b94b6ca75f12c7de1dbb1776c57b358d61a8a233ac55813600360009054906101000a900473ffffffffffffffffffffffffffffffffffffffff168885604051808473ffffffffffffffffffffffffffffffffffffffff1673ffffffffffffffffffffffffffffffffffffffff16815260200180602001838152602001828103825284818151815260200191508051906020019080838360005b838110156108ac578082015181840152602081019050610891565b50505050905090810190601f1680156108d95780820380516001836020036101000a031916815260200191505b5094505050505060405180910390a15050505050505050565b6000809054906101000a900473ffffffffffffffffffffffffffffffffffffffff1681565b6000809054906101000a900473ffffffffffffffffffffffffffffffffffffffff1673ffffffffffffffffffffffffffffffffffffffff163373ffffffffffffffffffffffffffffffffffffffff1614151561097257600080fd5b80600560006101000a81548173ffffffffffffffffffffffffffffffffffffffff021916908373ffffffffffffffffffffffffffffffffffffffff16021790555050565b6109be610f5e565b6000809054906101000a900473ffffffffffffffffffffffffffffffffffffffff1673ffffffffffffffffffffffffffffffffffffffff163373ffffffffffffffffffffffffffffffffffffffff16141515610a1957600080fd5b610a2282610b1d565b151515610a2e57600080fd5b60408051908101604052806000815260200160011515815250905080600460008473ffffffffffffffffffffffffffffffffffffffff1673ffffffffffffffffffffffffffffffffffffffff1681526020019081526020016000206000820151816000015560208201518160010160006101000a81548160ff0219169083151502179055509050507f0b9a48907377b43ed369cfb9f3a6e0a227cc67c0c3d021a6d730ead8092a1f5f82604051808273ffffffffffffffffffffffffffffffffffffffff1673ffffffffffffffffffffffffffffffffffffffff16815260200191505060405180910390a15050565b6000600460008373ffffffffffffffffffffffffffffffffffffffff1673ffffffffffffffffffffffffffffffffffffffff16815260200190815260200160002060010160009054906101000a900460ff169050919050565b6000809054906101000a900473ffffffffffffffffffffffffffffffffffffffff1673ffffffffffffffffffffffffffffffffffffffff163373ffffffffffffffffffffffffffffffffffffffff16141515610bd157600080fd5b610bda81610d54565b50565b6000610bf86020604051908101604052806000815250610e4e565b60001916610c0583610e4e565b60001916149050919050565b600080600560009054906101000a900473ffffffffffffffffffffffffffffffffffffffff1673ffffffffffffffffffffffffffffffffffffffff166370a08231336040518263ffffffff167c0100000000000000000000000000000000000000000000000000000000028152600401808273ffffffffffffffffffffffffffffffffffffffff1673ffffffffffffffffffffffffffffffffffffffff168152602001915050602060405180830381600087803b158015610cd157600080fd5b505af1158015610ce5573d6000803e3d6000fd5b505050506040513d6020811015610cfb57600080fd5b8101908080519060200190929190505050905082811015915050919050565b60006064610d2a83600154610f26565b811515610d3357fe5b049050919050565b6000828211151515610d4957fe5b818303905092915050565b600073ffffffffffffffffffffffffffffffffffffffff168173ffffffffffffffffffffffffffffffffffffffff1614151515610d9057600080fd5b8073ffffffffffffffffffffffffffffffffffffffff166000809054906101000a900473ffffffffffffffffffffffffffffffffffffffff1673ffffffffffffffffffffffffffffffffffffffff167f8be0079c531659141344cd1fd0a4f28419497f9722a3daafe3b4186f6b6457e060405160405180910390a3806000806101000a81548173ffffffffffffffffffffffffffffffffffffffff021916908373ffffffffffffffffffffffffffffffffffffffff16021790555050565b6000816040516020018082805190602001908083835b602083101515610e895780518252602082019150602081019050602083039250610e64565b6001836020036101000a0380198251168184511680821785525050505050509050019150506040516020818303038152906040526040518082805190602001908083835b602083101515610ef25780518252602082019150602081019050602083039250610ecd565b6001836020036101000a03801982511681845116808217855250505050505090500191505060405180910390209050919050565b600080831415610f395760009050610f58565b8183029050818382811515610f4a57fe5b04141515610f5457fe5b8090505b92915050565b60408051908101604052806000815260200160001515815250905600a165627a7a72305820d8297506beb7f67d9e08e371b7886d7333719f32a0df07feef56832ea73e62280029",
  "source": "pragma solidity ^0.4.23;\nimport \"./math/SafeMath.sol\";\nimport \"./ownership/Ownable.sol\";\nimport \"./GatewayERC20Contract.sol\";\n\ncontract PaymentGatewayContract is Ownable{\n    using SafeMath for uint256;\n    uint256 gatewayFeePercentage;\n    uint256 gatewayBalance;\n    address beneficiary;\n    mapping(address => Merchant) merchants;\n\n    GatewayERC20Contract tokenContract;\n\n    event AddMerchantEvent(address merchant);\n  //  event PaymentMadeEvent(address _merchant, string _reference, uint _amount);\n    event PaymentMadeInTokensEvent(address _merchant, string _reference, uint _tokenAmount);\n    event WithdrawGatewayFundsEvent(address _walletAddress, uint _amount);\n   // event WithdrawPaymentEvent(address _walletAddress, uint _amount);\n\n\n// Needs way to forward on in event of new contract\n// How do you mean?\n\n    constructor(uint256 _gatewayFee, address _beneficiary) \n    public\n    {\n        gatewayFeePercentage = _gatewayFee;\n        beneficiary = _beneficiary;\n        gatewayBalance = 0;\n    }\n\n    function () \n    public \n    payable {\n        revert(\"Bounce Eth\"); \n    } \n\n    function setTokenContract(address _tokenContractAddress) \n    public \n    onlyOwner\n    {\n        tokenContract = GatewayERC20Contract(_tokenContractAddress);\n    }\n\n    function getTokenContractAddress() \n    public\n    view \n    returns(address)\n    {\n        return tokenContract;\n    }\n\n// Is this required?\n//    function issueTokens(address _recipient, uint _amount) public onlyOwner{\n//        tokenContract.issueTokens(_recipient, _amount);\n//    }\n\n\n    function addMerchant(address _walletAddress) \n    public\n    onlyOwner \n    {\n        require(!isExistingMerchant(_walletAddress));\n        Merchant memory newMerchant = Merchant({ balance: 0, created: true});\n        merchants[_walletAddress] = newMerchant;\n        emit AddMerchantEvent(_walletAddress);\n    }\n\n// needs to take gateway fee percentage\n// Is it cheaper to make 2 contract calls here or do the logic in erc20 contract?\n\n    function makePaymentInTokens(address _merchantAddress, string _reference, uint _tokenAmount) \n    public\n    allowedToMakePayment(_merchantAddress, _reference)\n    {\n        require(hasSufficientTokensForTransfer(_tokenAmount));\n        uint256 transactionFee = calculateGatewayFee(_tokenAmount); // int ?\n        uint256 merchantFee = SafeMath.sub(_tokenAmount, transactionFee);\n        uint256 ownerFee = transactionFee;\n\n        tokenContract.gatewayTokenTransfer(msg.sender, _merchantAddress, merchantFee );\n        emit PaymentMadeInTokensEvent(_merchantAddress, _reference, merchantFee);\n\n        tokenContract.gatewayTokenTransfer(msg.sender, beneficiary, ownerFee );\n        emit PaymentMadeInTokensEvent(beneficiary, _reference, ownerFee); // how to alter reference string?\n    }\n\n    // Fees\n    function setGatewayFee(uint _newFee) \n    public\n    onlyOwner \n    {\n        require(_newFee < 100);\n        gatewayFeePercentage = _newFee;\n    }\n\n    // Calculations\n    function calculateGatewayFee(uint _amount) \n    private \n    view \n    returns(uint fee) {\n        return SafeMath.mul(_amount, gatewayFeePercentage) / 100;\n    }\n\n    // Require functions\n//    function permittedToAccessAccount(address _address) private view returns (bool valid){\n//        if(msg.sender == owner){\n//            return true;\n//        }\n//        return msg.sender == _address;\n//    }\n\n    function isExistingMerchant(address _merchantAddress) \n    public \n    view \n    returns (bool)\n    {\n        return merchants[_merchantAddress].created;\n    }\n\n    function isStringEqual(string _input_a, string _input_b) private pure returns(bool)\n    {\n        return keccakHash(_input_a) == keccakHash(_input_b);\n    }\n\n    function isStringEmpty(string _input) \n    private \n    pure \n    returns(bool)\n    {\n        return keccakHash(_input) == keccakHash(\"\");\n    }\n\n\n    function keccakHash(string _input) private pure returns (bytes32)\n    {\n        return keccak256(abi.encodePacked(_input));\n    }\n\n    function hasSufficientTokensForTransfer(uint _amount) private view returns(bool)\n    {\n        uint balance = tokenContract.balanceOf(msg.sender);\n        return balance >= _amount;\n    }\n\n// is this required as this can be used directly on erc20 contract ?\n\n//    function balanceOf(address tokenOwner) public view returns (uint balance) {\n//            return tokenContract.balanceOf(tokenOwner);\n//        }\n\n    modifier allowedToMakePayment(address _merchant, string _reference)\n    {\n        require(!isStringEmpty(_reference));\n        require(isExistingMerchant(_merchant));\n        _;\n    }\n\n    struct Merchant{\n        uint balance;\n        bool created;\n    }\n}",
  "sourcePath": "/Users/x/Documents/webs/ethpaymentgateway/contracts/PaymentGatewayContract.sol",
  "compiler": {
    "name": "solc",
    "version": "0.4.24+commit.e67f0147.Emscripten.clang"
  },
  "schemaVersion": "2.0.1",
  "updatedAt": "2018-11-03T15:13:59.256Z"
}