{
  "contractName": "GatewayERC20Contract",
  "abi": [
    {
      "constant": true,
      "inputs": [],
      "name": "name",
      "outputs": [
        {
          "name": "",
          "type": "string"
        }
      ],
      "payable": false,
      "stateMutability": "view",
      "type": "function"
    },
    {
      "constant": true,
      "inputs": [],
      "name": "decimals",
      "outputs": [
        {
          "name": "",
          "type": "uint256"
        }
      ],
      "payable": false,
      "stateMutability": "view",
      "type": "function"
    },
    {
      "constant": true,
      "inputs": [],
      "name": "owner",
      "outputs": [
        {
          "name": "",
          "type": "address"
        }
      ],
      "payable": false,
      "stateMutability": "view",
      "type": "function"
    },
    {
      "constant": true,
      "inputs": [],
      "name": "symbol",
      "outputs": [
        {
          "name": "",
          "type": "string"
        }
      ],
      "payable": false,
      "stateMutability": "view",
      "type": "function"
    },
    {
      "constant": false,
      "inputs": [
        {
          "name": "_newOwner",
          "type": "address"
        }
      ],
      "name": "transferOwnership",
      "outputs": [],
      "payable": false,
      "stateMutability": "nonpayable",
      "type": "function"
    },
    {
      "inputs": [
        {
          "name": "_gatewayContract",
          "type": "address"
        },
        {
          "name": "_tokenSupply",
          "type": "uint256"
        },
        {
          "name": "_symbol",
          "type": "string"
        },
        {
          "name": "_name",
          "type": "string"
        }
      ],
      "payable": false,
      "stateMutability": "nonpayable",
      "type": "constructor"
    },
    {
      "payable": true,
      "stateMutability": "payable",
      "type": "fallback"
    },
    {
      "anonymous": false,
      "inputs": [
        {
          "indexed": true,
          "name": "previousOwner",
          "type": "address"
        },
        {
          "indexed": true,
          "name": "newOwner",
          "type": "address"
        }
      ],
      "name": "OwnershipTransferred",
      "type": "event"
    },
    {
      "anonymous": false,
      "inputs": [
        {
          "indexed": true,
          "name": "recipient",
          "type": "address"
        },
        {
          "indexed": false,
          "name": "amount",
          "type": "uint256"
        },
        {
          "indexed": false,
          "name": "balanceBefore",
          "type": "uint256"
        },
        {
          "indexed": false,
          "name": "balanceAfter",
          "type": "uint256"
        },
        {
          "indexed": false,
          "name": "issuedBy",
          "type": "address"
        }
      ],
      "name": "IssueTokens",
      "type": "event"
    },
    {
      "anonymous": false,
      "inputs": [
        {
          "indexed": true,
          "name": "from",
          "type": "address"
        },
        {
          "indexed": true,
          "name": "to",
          "type": "address"
        },
        {
          "indexed": false,
          "name": "tokens",
          "type": "uint256"
        }
      ],
      "name": "Transfer",
      "type": "event"
    },
    {
      "constant": true,
      "inputs": [],
      "name": "totalSupply",
      "outputs": [
        {
          "name": "",
          "type": "uint256"
        }
      ],
      "payable": false,
      "stateMutability": "view",
      "type": "function"
    },
    {
      "constant": true,
      "inputs": [
        {
          "name": "tokenOwner",
          "type": "address"
        }
      ],
      "name": "balanceOf",
      "outputs": [
        {
          "name": "balance",
          "type": "uint256"
        }
      ],
      "payable": false,
      "stateMutability": "view",
      "type": "function"
    },
    {
      "constant": false,
      "inputs": [
        {
          "name": "to",
          "type": "address"
        },
        {
          "name": "tokens",
          "type": "uint256"
        }
      ],
      "name": "transfer",
      "outputs": [
        {
          "name": "success",
          "type": "bool"
        }
      ],
      "payable": false,
      "stateMutability": "nonpayable",
      "type": "function"
    },
    {
      "constant": false,
      "inputs": [
        {
          "name": "tokenAddress",
          "type": "address"
        },
        {
          "name": "tokens",
          "type": "uint256"
        }
      ],
      "name": "transferAnyERC20Token",
      "outputs": [
        {
          "name": "success",
          "type": "bool"
        }
      ],
      "payable": false,
      "stateMutability": "nonpayable",
      "type": "function"
    },
    {
      "constant": false,
      "inputs": [
        {
          "name": "_gatewayContract",
          "type": "address"
        }
      ],
      "name": "setPaymentGatewayAddress",
      "outputs": [],
      "payable": false,
      "stateMutability": "nonpayable",
      "type": "function"
    },
    {
      "constant": false,
      "inputs": [
        {
          "name": "_status",
          "type": "bool"
        }
      ],
      "name": "setTransferStatus",
      "outputs": [],
      "payable": false,
      "stateMutability": "nonpayable",
      "type": "function"
    },
    {
      "constant": false,
      "inputs": [
        {
          "name": "_recipient",
          "type": "address"
        },
        {
          "name": "_tokens",
          "type": "uint256"
        }
      ],
      "name": "issueTokens",
      "outputs": [
        {
          "name": "",
          "type": "bool"
        }
      ],
      "payable": false,
      "stateMutability": "nonpayable",
      "type": "function"
    },
    {
      "constant": false,
      "inputs": [
        {
          "name": "from",
          "type": "address"
        },
        {
          "name": "to",
          "type": "address"
        },
        {
          "name": "tokens",
          "type": "uint256"
        }
      ],
      "name": "gatewayTokenTransfer",
      "outputs": [
        {
          "name": "success",
          "type": "bool"
        }
      ],
      "payable": false,
      "stateMutability": "nonpayable",
      "type": "function"
    }
  ],
  "bytecode": "0x60806040523480156200001157600080fd5b506040516200150c3803806200150c83398101806040528101908080519060200190929190805190602001909291908051820192919060200180518201929190505050336000806101000a81548173ffffffffffffffffffffffffffffffffffffffff021916908373ffffffffffffffffffffffffffffffffffffffff1602179055508160029080519060200190620000ac929190620001a7565b508060039080519060200190620000c5929190620001a7565b506006600481905550620f42408302600581905550600554600760008060009054906101000a900473ffffffffffffffffffffffffffffffffffffffff1673ffffffffffffffffffffffffffffffffffffffff1673ffffffffffffffffffffffffffffffffffffffff1681526020019081526020016000208190555083600160006101000a81548173ffffffffffffffffffffffffffffffffffffffff021916908373ffffffffffffffffffffffffffffffffffffffff1602179055506000600660006101000a81548160ff0219169083151502179055505050505062000256565b828054600181600116156101000203166002900490600052602060002090601f016020900481019282601f10620001ea57805160ff19168380011785556200021b565b828001600101855582156200021b579182015b828111156200021a578251825591602001919060010190620001fd565b5b5090506200022a91906200022e565b5090565b6200025391905b808211156200024f57600081600090555060010162000235565b5090565b90565b6112a680620002666000396000f3006080604052600436106100c5576000357c0100000000000000000000000000000000000000000000000000000000900463ffffffff16806306fdde031461013357806318160ddd146101c3578063313ce567146101ee578063475a9fa914610219578063493770cc1461027e5780636e5089e1146102ad57806370a08231146103325780638da5cb5b1461038957806395d89b41146103e0578063a9059cbb14610470578063dc39d06d146104d5578063f2fde38b1461053a578063f7acccdf1461057d575b6040517f08c379a000000000000000000000000000000000000000000000000000000000815260040180806020018281038252600a8152602001807f426f756e6365204574680000000000000000000000000000000000000000000081525060200191505060405180910390fd5b34801561013f57600080fd5b506101486105c0565b6040518080602001828103825283818151815260200191508051906020019080838360005b8381101561018857808201518184015260208101905061016d565b50505050905090810190601f1680156101b55780820380516001836020036101000a031916815260200191505b509250505060405180910390f35b3480156101cf57600080fd5b506101d861065e565b6040518082815260200191505060405180910390f35b3480156101fa57600080fd5b506102036106da565b6040518082815260200191505060405180910390f35b34801561022557600080fd5b50610264600480360381019080803573ffffffffffffffffffffffffffffffffffffffff169060200190929190803590602001909291905050506106e0565b604051808215151515815260200191505060405180910390f35b34801561028a57600080fd5b506102ab6004803603810190808035151590602001909291905050506108cd565b005b3480156102b957600080fd5b50610318600480360381019080803573ffffffffffffffffffffffffffffffffffffffff169060200190929190803573ffffffffffffffffffffffffffffffffffffffff16906020019092919080359060200190929190505050610945565b604051808215151515815260200191505060405180910390f35b34801561033e57600080fd5b50610373600480360381019080803573ffffffffffffffffffffffffffffffffffffffff169060200190929190505050610b52565b6040518082815260200191505060405180910390f35b34801561039557600080fd5b5061039e610b9b565b604051808273ffffffffffffffffffffffffffffffffffffffff1673ffffffffffffffffffffffffffffffffffffffff16815260200191505060405180910390f35b3480156103ec57600080fd5b506103f5610bc0565b6040518080602001828103825283818151815260200191508051906020019080838360005b8381101561043557808201518184015260208101905061041a565b50505050905090810190601f1680156104625780820380516001836020036101000a031916815260200191505b509250505060405180910390f35b34801561047c57600080fd5b506104bb600480360381019080803573ffffffffffffffffffffffffffffffffffffffff16906020019092919080359060200190929190505050610c5e565b604051808215151515815260200191505060405180910390f35b3480156104e157600080fd5b50610520600480360381019080803573ffffffffffffffffffffffffffffffffffffffff16906020019092919080359060200190929190505050610e21565b604051808215151515815260200191505060405180910390f35b34801561054657600080fd5b5061057b600480360381019080803573ffffffffffffffffffffffffffffffffffffffff169060200190929190505050610f85565b005b34801561058957600080fd5b506105be600480360381019080803573ffffffffffffffffffffffffffffffffffffffff169060200190929190505050610fec565b005b60038054600181600116156101000203166002900480601f0160208091040260200160405190810160405280929190818152602001828054600181600116156101000203166002900480156106565780601f1061062b57610100808354040283529160200191610656565b820191906000526020600020905b81548152906001019060200180831161063957829003601f168201915b505050505081565b60006106d5600760008060009054906101000a900473ffffffffffffffffffffffffffffffffffffffff1673ffffffffffffffffffffffffffffffffffffffff1673ffffffffffffffffffffffffffffffffffffffff1681526020019081526020016000205460055461108b90919063ffffffff16565b905090565b60045481565b6000803373ffffffffffffffffffffffffffffffffffffffff166000809054906101000a900473ffffffffffffffffffffffffffffffffffffffff1673ffffffffffffffffffffffffffffffffffffffff1614151561073e57600080fd5b600760008573ffffffffffffffffffffffffffffffffffffffff1673ffffffffffffffffffffffffffffffffffffffff16815260200190815260200160002054905061079383826110a490919063ffffffff16565b600760008673ffffffffffffffffffffffffffffffffffffffff1673ffffffffffffffffffffffffffffffffffffffff168152602001908152602001600020819055506107eb836005546110a490919063ffffffff16565b6005819055508373ffffffffffffffffffffffffffffffffffffffff167f6ef5a9c41bf102151e225964c4a95996b0beb43571566d0234bde2917715632b8483600760008973ffffffffffffffffffffffffffffffffffffffff1673ffffffffffffffffffffffffffffffffffffffff1681526020019081526020016000205433604051808581526020018481526020018381526020018273ffffffffffffffffffffffffffffffffffffffff1673ffffffffffffffffffffffffffffffffffffffff16815260200194505050505060405180910390a2600191505092915050565b6000809054906101000a900473ffffffffffffffffffffffffffffffffffffffff1673ffffffffffffffffffffffffffffffffffffffff163373ffffffffffffffffffffffffffffffffffffffff1614151561092857600080fd5b80600660006101000a81548160ff02191690831515021790555050565b6000600160009054906101000a900473ffffffffffffffffffffffffffffffffffffffff1673ffffffffffffffffffffffffffffffffffffffff163373ffffffffffffffffffffffffffffffffffffffff161415156109a357600080fd5b6109ad84836110c0565b15156109b857600080fd5b610a0a82600760008773ffffffffffffffffffffffffffffffffffffffff1673ffffffffffffffffffffffffffffffffffffffff1681526020019081526020016000205461108b90919063ffffffff16565b600760008673ffffffffffffffffffffffffffffffffffffffff1673ffffffffffffffffffffffffffffffffffffffff16815260200190815260200160002081905550610a9f82600760008673ffffffffffffffffffffffffffffffffffffffff1673ffffffffffffffffffffffffffffffffffffffff168152602001908152602001600020546110a490919063ffffffff16565b600760008573ffffffffffffffffffffffffffffffffffffffff1673ffffffffffffffffffffffffffffffffffffffff168152602001908152602001600020819055508273ffffffffffffffffffffffffffffffffffffffff163373ffffffffffffffffffffffffffffffffffffffff167fddf252ad1be2c89b69c2b068fc378daa952ba7f163c4a11628f55a4df523b3ef846040518082815260200191505060405180910390a3600190509392505050565b6000600760008373ffffffffffffffffffffffffffffffffffffffff1673ffffffffffffffffffffffffffffffffffffffff168152602001908152602001600020549050919050565b6000809054906101000a900473ffffffffffffffffffffffffffffffffffffffff1681565b60028054600181600116156101000203166002900480601f016020809104026020016040519081016040528092919081815260200182805460018160011615610100020316600290048015610c565780601f10610c2b57610100808354040283529160200191610c56565b820191906000526020600020905b815481529060010190602001808311610c3957829003601f168201915b505050505081565b6000610c6a33836110c0565b1515610c7557600080fd5b610c7d611112565b1515610c8857600080fd5b610cda82600760003373ffffffffffffffffffffffffffffffffffffffff1673ffffffffffffffffffffffffffffffffffffffff1681526020019081526020016000205461108b90919063ffffffff16565b600760003373ffffffffffffffffffffffffffffffffffffffff1673ffffffffffffffffffffffffffffffffffffffff16815260200190815260200160002081905550610d6f82600760008673ffffffffffffffffffffffffffffffffffffffff1673ffffffffffffffffffffffffffffffffffffffff168152602001908152602001600020546110a490919063ffffffff16565b600760008573ffffffffffffffffffffffffffffffffffffffff1673ffffffffffffffffffffffffffffffffffffffff168152602001908152602001600020819055508273ffffffffffffffffffffffffffffffffffffffff163373ffffffffffffffffffffffffffffffffffffffff167fddf252ad1be2c89b69c2b068fc378daa952ba7f163c4a11628f55a4df523b3ef846040518082815260200191505060405180910390a36001905092915050565b60008060009054906101000a900473ffffffffffffffffffffffffffffffffffffffff1673ffffffffffffffffffffffffffffffffffffffff163373ffffffffffffffffffffffffffffffffffffffff16141515610e7e57600080fd5b8273ffffffffffffffffffffffffffffffffffffffff1663a9059cbb6000809054906101000a900473ffffffffffffffffffffffffffffffffffffffff16846040518363ffffffff167c0100000000000000000000000000000000000000000000000000000000028152600401808373ffffffffffffffffffffffffffffffffffffffff1673ffffffffffffffffffffffffffffffffffffffff16815260200182815260200192505050602060405180830381600087803b158015610f4257600080fd5b505af1158015610f56573d6000803e3d6000fd5b505050506040513d6020811015610f6c57600080fd5b8101908080519060200190929190505050905092915050565b6000809054906101000a900473ffffffffffffffffffffffffffffffffffffffff1673ffffffffffffffffffffffffffffffffffffffff163373ffffffffffffffffffffffffffffffffffffffff16141515610fe057600080fd5b610fe981611180565b50565b6000809054906101000a900473ffffffffffffffffffffffffffffffffffffffff1673ffffffffffffffffffffffffffffffffffffffff163373ffffffffffffffffffffffffffffffffffffffff1614151561104757600080fd5b80600160006101000a81548173ffffffffffffffffffffffffffffffffffffffff021916908373ffffffffffffffffffffffffffffffffffffffff16021790555050565b600082821115151561109957fe5b818303905092915050565b600081830190508281101515156110b757fe5b80905092915050565b600080600760008573ffffffffffffffffffffffffffffffffffffffff1673ffffffffffffffffffffffffffffffffffffffff1681526020019081526020016000205490508281101591505092915050565b60008060009054906101000a900473ffffffffffffffffffffffffffffffffffffffff1673ffffffffffffffffffffffffffffffffffffffff163373ffffffffffffffffffffffffffffffffffffffff16148061117b5750600660009054906101000a900460ff165b905090565b600073ffffffffffffffffffffffffffffffffffffffff168173ffffffffffffffffffffffffffffffffffffffff16141515156111bc57600080fd5b8073ffffffffffffffffffffffffffffffffffffffff166000809054906101000a900473ffffffffffffffffffffffffffffffffffffffff1673ffffffffffffffffffffffffffffffffffffffff167f8be0079c531659141344cd1fd0a4f28419497f9722a3daafe3b4186f6b6457e060405160405180910390a3806000806101000a81548173ffffffffffffffffffffffffffffffffffffffff021916908373ffffffffffffffffffffffffffffffffffffffff160217905550505600a165627a7a7230582030824d8b42c9a006cc106698d7970bfaa5c0e83d160c15d9f42ffea8d006c1c20029",
  "source": "pragma solidity ^0.4.24;\nimport \"./ownership/Ownable.sol\";\nimport \"./math/SafeMath.sol\";\nimport \"./token/ERC20Interface.sol\";\n\n\ncontract GatewayERC20Contract is ERC20Interface, Ownable{\n    using SafeMath for uint256;\n\n    // be explicit about public and private\n    // try and separate concerns erc 20 and such\n    // fix tests\n\n    address paymentGatewayAddress;\n    string public symbol;\n    string public  name;\n    uint256 public decimals;\n    uint256 _totalSupply;\n    // is this basically for pausing?\n    bool transferActive;\n\n    mapping(address => uint) balances;\n    \n    constructor(address _gatewayContract, uint256 _tokenSupply, string _symbol, string _name) public{\n        symbol = _symbol;\n        name = _name;\n        decimals = 6;\n        _totalSupply = _tokenSupply * 1000000;\n        balances[owner] = _totalSupply;\n        paymentGatewayAddress = _gatewayContract;\n        transferActive = false;\n    }\n\n    function totalSupply() \n    public \n    view \n    returns (uint) \n    {\n        return _totalSupply.sub(balances[owner]);\n    }    \n\n    function balanceOf(address tokenOwner) \n    public \n    view \n    returns (uint balance) \n    {\n        return balances[tokenOwner];\n    }\n\n    function transfer(address to, uint tokens) \n    public \n    returns (bool success) \n    {\n        // transferEnabled would be easier to read as a modifier\n        // rly?, bit clunky -- whats this transger enabled thing?\n        require(hasSufficientBalanceForTransfer(msg.sender, tokens));\n        require(transferEnabled());\n        balances[msg.sender] = balances[msg.sender].sub(tokens);\n        balances[to] = balances[to].add(tokens);\n        emit Transfer(msg.sender, to, tokens);\n        return true;\n    }\n\n    //function approve(address spender, uint tokens) public returns (bool success) {\n    //     allowed[msg.sender][spender] = tokens;\n    //     emit Approval(msg.sender, spender, tokens);\n    //     return true;\n    //}\n\n    //function transferFrom(address from, address to, uint tokens) public returns (bool success) {\n    //    balances[from] = balances[from].sub(tokens);\n    //    allowed[from][msg.sender] = allowed[from][msg.sender].sub(tokens);\n    //    balances[to] = balances[to].add(tokens);\n    //    emit Transfer(from, to, tokens);\n    //    return true;\n    //}\n\n    //function allowance(address tokenOwner, address spender) public view returns (uint remaining) {\n    //     return allowed[tokenOwner][spender];\n    //}\n\n    function () public payable {\n        revert(\"Bounce Eth\");\n    }\n\n    function transferAnyERC20Token(address tokenAddress, uint tokens) \n    public \n    onlyOwner \n    returns (bool success) \n    {\n        return ERC20Interface(tokenAddress).transfer(owner, tokens);\n    }\n\n\n    function setPaymentGatewayAddress(address _gatewayContract) \n    public \n    onlyOwner \n    {\n        paymentGatewayAddress = _gatewayContract;\n    }\n\n    function setTransferStatus(bool _status) \n    public\n    onlyOwner \n    {\n        transferActive = _status;\n    }\n\n// this seems to be creating extra tokens on top of inital supply?\n// should this not be transfer() ?\n// does the gateway contract need to issue tokens?\n    function issueTokens(address _recipient, uint _tokens) \n    public \n    canIssueTokens \n    returns(bool) \n    {\n        uint balance = balances[_recipient];\n        balances[_recipient] = balance.add(_tokens);\n        _totalSupply = _totalSupply.add(_tokens);\n        // balance can be queries -- we only want to say from, to and amount\n        // current balance should be queries elsewhere\n        emit IssueTokens(_recipient, _tokens, balance, balances[_recipient], msg.sender);\n        return true;\n    }\n\n    function gatewayTokenTransfer(address from, address to, uint tokens) public\n        callerIsGatewayContract() returns (bool success) {\n        require(hasSufficientBalanceForTransfer(from, tokens));\n        balances[from] = balances[from].sub(tokens);\n        balances[to] = balances[to].add(tokens);\n        emit Transfer(msg.sender, to, tokens); // should this not be from, to, tokens?\n        return true;\n    }\n\n    modifier canIssueTokens(){\n        //require(owner == msg.sender || msg.sender == paymentGatewayAddress);\n        require(owner == msg.sender);\n        _;\n    }\n\n    modifier callerIsGatewayContract(){\n        require(msg.sender == paymentGatewayAddress);\n        _;\n    }\n\n    function hasSufficientBalanceForTransfer(address _sender, uint _amount) \n    private \n    view \n    returns(bool)\n    {\n        uint balance = balances[_sender];\n        return balance >= _amount;\n    }\n\n    function transferEnabled() \n    private \n    view \n    returns(bool) \n    {\n        return msg.sender == owner || transferActive;\n    }\n}",
  "sourcePath": "/Users/x/Documents/webs/ethpaymentgateway/contracts/GatewayERC20Contract.sol",
  "compiler": {
    "name": "solc",
    "version": "0.4.24+commit.e67f0147.Emscripten.clang"
  },
  "schemaVersion": "2.0.1",
  "updatedAt": "2018-10-31T13:05:09.506Z"
}