{
  "contractName": "PaymentGatewayContract",
  "abi": [
    {
      "constant": true,
      "inputs": [],
      "name": "owner",
      "outputs": [
        {
          "name": "",
          "type": "address"
        }
      ],
      "payable": false,
      "stateMutability": "view",
      "type": "function"
    },
    {
      "constant": false,
      "inputs": [
        {
          "name": "_newOwner",
          "type": "address"
        }
      ],
      "name": "transferOwnership",
      "outputs": [],
      "payable": false,
      "stateMutability": "nonpayable",
      "type": "function"
    },
    {
      "inputs": [],
      "payable": false,
      "stateMutability": "nonpayable",
      "type": "constructor"
    },
    {
      "anonymous": false,
      "inputs": [
        {
          "indexed": false,
          "name": "merchant",
          "type": "address"
        }
      ],
      "name": "AddMerchantEvent",
      "type": "event"
    },
    {
      "anonymous": false,
      "inputs": [
        {
          "indexed": false,
          "name": "_merchant",
          "type": "address"
        },
        {
          "indexed": false,
          "name": "_reference",
          "type": "string"
        },
        {
          "indexed": false,
          "name": "_amount",
          "type": "uint256"
        }
      ],
      "name": "PaymentMadeEvent",
      "type": "event"
    },
    {
      "anonymous": false,
      "inputs": [
        {
          "indexed": false,
          "name": "_merchant",
          "type": "address"
        },
        {
          "indexed": false,
          "name": "_reference",
          "type": "string"
        },
        {
          "indexed": false,
          "name": "_tokenAmount",
          "type": "uint256"
        }
      ],
      "name": "PaymentMadeInTokensEvent",
      "type": "event"
    },
    {
      "anonymous": false,
      "inputs": [
        {
          "indexed": false,
          "name": "_walletAddress",
          "type": "address"
        },
        {
          "indexed": false,
          "name": "_amount",
          "type": "uint256"
        }
      ],
      "name": "WithdrawGatewayFundsEvent",
      "type": "event"
    },
    {
      "anonymous": false,
      "inputs": [
        {
          "indexed": false,
          "name": "_walletAddress",
          "type": "address"
        },
        {
          "indexed": false,
          "name": "_amount",
          "type": "uint256"
        }
      ],
      "name": "WithdrawPaymentEvent",
      "type": "event"
    },
    {
      "anonymous": false,
      "inputs": [
        {
          "indexed": true,
          "name": "previousOwner",
          "type": "address"
        },
        {
          "indexed": true,
          "name": "newOwner",
          "type": "address"
        }
      ],
      "name": "OwnershipTransferred",
      "type": "event"
    },
    {
      "constant": false,
      "inputs": [
        {
          "name": "_tokenContractAddress",
          "type": "address"
        }
      ],
      "name": "setTokenContract",
      "outputs": [],
      "payable": false,
      "stateMutability": "nonpayable",
      "type": "function"
    },
    {
      "constant": true,
      "inputs": [],
      "name": "getTokenContractAddress",
      "outputs": [
        {
          "name": "",
          "type": "address"
        }
      ],
      "payable": false,
      "stateMutability": "view",
      "type": "function"
    },
    {
      "constant": false,
      "inputs": [
        {
          "name": "_recipient",
          "type": "address"
        },
        {
          "name": "_amount",
          "type": "uint256"
        }
      ],
      "name": "issueTokens",
      "outputs": [],
      "payable": false,
      "stateMutability": "nonpayable",
      "type": "function"
    },
    {
      "constant": false,
      "inputs": [
        {
          "name": "_walletAddress",
          "type": "address"
        }
      ],
      "name": "addMerchant",
      "outputs": [],
      "payable": false,
      "stateMutability": "nonpayable",
      "type": "function"
    },
    {
      "constant": false,
      "inputs": [
        {
          "name": "_merchantAddress",
          "type": "address"
        },
        {
          "name": "_reference",
          "type": "string"
        }
      ],
      "name": "makePayment",
      "outputs": [],
      "payable": true,
      "stateMutability": "payable",
      "type": "function"
    },
    {
      "constant": false,
      "inputs": [
        {
          "name": "_merchantAddress",
          "type": "address"
        },
        {
          "name": "_reference",
          "type": "string"
        },
        {
          "name": "_tokenAmount",
          "type": "uint256"
        }
      ],
      "name": "makePaymentInTokens",
      "outputs": [],
      "payable": false,
      "stateMutability": "nonpayable",
      "type": "function"
    },
    {
      "constant": false,
      "inputs": [
        {
          "name": "_merchantAddress",
          "type": "address"
        }
      ],
      "name": "withdrawPayment",
      "outputs": [],
      "payable": false,
      "stateMutability": "nonpayable",
      "type": "function"
    },
    {
      "constant": false,
      "inputs": [
        {
          "name": "_newFee",
          "type": "uint256"
        }
      ],
      "name": "setGatewayFee",
      "outputs": [],
      "payable": false,
      "stateMutability": "nonpayable",
      "type": "function"
    },
    {
      "constant": false,
      "inputs": [],
      "name": "withdrawGatewayFees",
      "outputs": [],
      "payable": false,
      "stateMutability": "nonpayable",
      "type": "function"
    },
    {
      "constant": true,
      "inputs": [
        {
          "name": "_merchantAddress",
          "type": "address"
        }
      ],
      "name": "getMerchantBalance",
      "outputs": [
        {
          "name": "",
          "type": "address"
        },
        {
          "name": "",
          "type": "uint256"
        }
      ],
      "payable": false,
      "stateMutability": "view",
      "type": "function"
    },
    {
      "constant": true,
      "inputs": [],
      "name": "getGatewayBalance",
      "outputs": [
        {
          "name": "",
          "type": "uint256"
        }
      ],
      "payable": false,
      "stateMutability": "view",
      "type": "function"
    },
    {
      "constant": true,
      "inputs": [
        {
          "name": "_merchantAddress",
          "type": "address"
        }
      ],
      "name": "isExistingMerchant",
      "outputs": [
        {
          "name": "",
          "type": "bool"
        }
      ],
      "payable": false,
      "stateMutability": "view",
      "type": "function"
    },
    {
      "constant": true,
      "inputs": [
        {
          "name": "tokenOwner",
          "type": "address"
        }
      ],
      "name": "balanceOf",
      "outputs": [
        {
          "name": "balance",
          "type": "uint256"
        }
      ],
      "payable": false,
      "stateMutability": "view",
      "type": "function"
    }
  ],
  "bytecode": "0x608060405234801561001057600080fd5b50336000806101000a81548173ffffffffffffffffffffffffffffffffffffffff021916908373ffffffffffffffffffffffffffffffffffffffff160217905550600a60018190555060006002819055506117f2806100706000396000f3006080604052600436106100db576000357c0100000000000000000000000000000000000000000000000000000000900463ffffffff16806322e45584146100e0578063352210631461013757806346a0ff4214610162578063475a9fa91461018f57806363c742ad146101dc5780636e9f74721461026657806370a08231146102f95780638ac28d5a146103505780638da5cb5b14610393578063bbcd5bbe146103ea578063bf76c0ef1461042d578063c3bad6ef14610470578063ce304484146104ec578063e62646b214610547578063f2fde38b1461055e575b600080fd5b3480156100ec57600080fd5b506100f56105a1565b604051808273ffffffffffffffffffffffffffffffffffffffff1673ffffffffffffffffffffffffffffffffffffffff16815260200191505060405180910390f35b34801561014357600080fd5b5061014c6105cb565b6040518082815260200191505060405180910390f35b34801561016e57600080fd5b5061018d60048036038101908080359060200190929190505050610630565b005b34801561019b57600080fd5b506101da600480360381019080803573ffffffffffffffffffffffffffffffffffffffff169060200190929190803590602001909291905050506106a4565b005b3480156101e857600080fd5b5061021d600480360381019080803573ffffffffffffffffffffffffffffffffffffffff169060200190929190505050610804565b604051808373ffffffffffffffffffffffffffffffffffffffff1673ffffffffffffffffffffffffffffffffffffffff1681526020018281526020019250505060405180910390f35b34801561027257600080fd5b506102f7600480360381019080803573ffffffffffffffffffffffffffffffffffffffff169060200190929190803590602001908201803590602001908080601f0160208091040260200160405190810160405280939291908181526020018383808284378201915050505050509192919290803590602001909291905050506108a4565b005b34801561030557600080fd5b5061033a600480360381019080803573ffffffffffffffffffffffffffffffffffffffff169060200190929190505050610af7565b6040518082815260200191505060405180910390f35b34801561035c57600080fd5b50610391600480360381019080803573ffffffffffffffffffffffffffffffffffffffff169060200190929190505050610bf8565b005b34801561039f57600080fd5b506103a8610d51565b604051808273ffffffffffffffffffffffffffffffffffffffff1673ffffffffffffffffffffffffffffffffffffffff16815260200191505060405180910390f35b3480156103f657600080fd5b5061042b600480360381019080803573ffffffffffffffffffffffffffffffffffffffff169060200190929190505050610d76565b005b34801561043957600080fd5b5061046e600480360381019080803573ffffffffffffffffffffffffffffffffffffffff169060200190929190505050610e15565b005b6104ea600480360381019080803573ffffffffffffffffffffffffffffffffffffffff169060200190929190803590602001908201803590602001908080601f0160208091040260200160405190810160405280939291908181526020018383808284378201915050505050509192919290505050610f7c565b005b3480156104f857600080fd5b5061052d600480360381019080803573ffffffffffffffffffffffffffffffffffffffff1690602001909291905050506110bd565b604051808215151515815260200191505060405180910390f35b34801561055357600080fd5b5061055c611116565b005b34801561056a57600080fd5b5061059f600480360381019080803573ffffffffffffffffffffffffffffffffffffffff169060200190929190505050611273565b005b6000600460009054906101000a900473ffffffffffffffffffffffffffffffffffffffff16905090565b60008060009054906101000a900473ffffffffffffffffffffffffffffffffffffffff1673ffffffffffffffffffffffffffffffffffffffff163373ffffffffffffffffffffffffffffffffffffffff1614151561062857600080fd5b600254905090565b6000809054906101000a900473ffffffffffffffffffffffffffffffffffffffff1673ffffffffffffffffffffffffffffffffffffffff163373ffffffffffffffffffffffffffffffffffffffff1614151561068b57600080fd5b60648110151561069a57600080fd5b8060018190555050565b6000809054906101000a900473ffffffffffffffffffffffffffffffffffffffff1673ffffffffffffffffffffffffffffffffffffffff163373ffffffffffffffffffffffffffffffffffffffff161415156106ff57600080fd5b600460009054906101000a900473ffffffffffffffffffffffffffffffffffffffff1673ffffffffffffffffffffffffffffffffffffffff1663475a9fa983836040518363ffffffff167c0100000000000000000000000000000000000000000000000000000000028152600401808373ffffffffffffffffffffffffffffffffffffffff1673ffffffffffffffffffffffffffffffffffffffff16815260200182815260200192505050602060405180830381600087803b1580156107c457600080fd5b505af11580156107d8573d6000803e3d6000fd5b505050506040513d60208110156107ee57600080fd5b8101908080519060200190929190505050505050565b60008061080f6117aa565b610818846112da565b151561082357600080fd5b600360008573ffffffffffffffffffffffffffffffffffffffff1673ffffffffffffffffffffffffffffffffffffffff168152602001908152602001600020604080519081016040529081600082015481526020016001820160009054906101000a900460ff16151515158152505090508381600001519250925050915091565b82826108af81611371565b1515156108bb57600080fd5b6108c4826110bd565b15156108cf57600080fd5b6108d8836113a5565b15156108e357600080fd5b600460009054906101000a900473ffffffffffffffffffffffffffffffffffffffff1673ffffffffffffffffffffffffffffffffffffffff16636e5089e13387866040518463ffffffff167c0100000000000000000000000000000000000000000000000000000000028152600401808473ffffffffffffffffffffffffffffffffffffffff1673ffffffffffffffffffffffffffffffffffffffff1681526020018373ffffffffffffffffffffffffffffffffffffffff1673ffffffffffffffffffffffffffffffffffffffff1681526020018281526020019350505050602060405180830381600087803b1580156109dc57600080fd5b505af11580156109f0573d6000803e3d6000fd5b505050506040513d6020811015610a0657600080fd5b8101908080519060200190929190505050507f61052ba846455d626b94b6ca75f12c7de1dbb1776c57b358d61a8a233ac55813858585604051808473ffffffffffffffffffffffffffffffffffffffff1673ffffffffffffffffffffffffffffffffffffffff16815260200180602001838152602001828103825284818151815260200191508051906020019080838360005b83811015610ab4578082015181840152602081019050610a99565b50505050905090810190601f168015610ae15780820380516001836020036101000a031916815260200191505b5094505050505060405180910390a15050505050565b6000600460009054906101000a900473ffffffffffffffffffffffffffffffffffffffff1673ffffffffffffffffffffffffffffffffffffffff166370a08231836040518263ffffffff167c0100000000000000000000000000000000000000000000000000000000028152600401808273ffffffffffffffffffffffffffffffffffffffff1673ffffffffffffffffffffffffffffffffffffffff168152602001915050602060405180830381600087803b158015610bb657600080fd5b505af1158015610bca573d6000803e3d6000fd5b505050506040513d6020811015610be057600080fd5b81019080805190602001909291905050509050919050565b6000610c03826112da565b1515610c0e57600080fd5b600360008373ffffffffffffffffffffffffffffffffffffffff1673ffffffffffffffffffffffffffffffffffffffff1681526020019081526020016000206000015490508173ffffffffffffffffffffffffffffffffffffffff166108fc829081150290604051600060405180830381858888f19350505050158015610c99573d6000803e3d6000fd5b506000600360008473ffffffffffffffffffffffffffffffffffffffff1673ffffffffffffffffffffffffffffffffffffffff168152602001908152602001600020600001819055507f0a1c427727ab052938e3fb91b7971a61da1642a5feef55ba605922d29cf9309d8282604051808373ffffffffffffffffffffffffffffffffffffffff1673ffffffffffffffffffffffffffffffffffffffff1681526020018281526020019250505060405180910390a15050565b6000809054906101000a900473ffffffffffffffffffffffffffffffffffffffff1681565b6000809054906101000a900473ffffffffffffffffffffffffffffffffffffffff1673ffffffffffffffffffffffffffffffffffffffff163373ffffffffffffffffffffffffffffffffffffffff16141515610dd157600080fd5b80600460006101000a81548173ffffffffffffffffffffffffffffffffffffffff021916908373ffffffffffffffffffffffffffffffffffffffff16021790555050565b610e1d6117aa565b6000809054906101000a900473ffffffffffffffffffffffffffffffffffffffff1673ffffffffffffffffffffffffffffffffffffffff163373ffffffffffffffffffffffffffffffffffffffff16141515610e7857600080fd5b610e81826110bd565b151515610e8d57600080fd5b60408051908101604052806000815260200160011515815250905080600360008473ffffffffffffffffffffffffffffffffffffffff1673ffffffffffffffffffffffffffffffffffffffff1681526020019081526020016000206000820151816000015560208201518160010160006101000a81548160ff0219169083151502179055509050507f0b9a48907377b43ed369cfb9f3a6e0a227cc67c0c3d021a6d730ead8092a1f5f82604051808273ffffffffffffffffffffffffffffffffffffffff1673ffffffffffffffffffffffffffffffffffffffff16815260200191505060405180910390a15050565b6000808383610f8a81611371565b151515610f9657600080fd5b610f9f826110bd565b1515610faa57600080fd5b610fb3346114ae565b9350610fc1600254856114cf565b600281905550610fd134856114eb565b9250610fdd8684611504565b7ff5d63d972959a5f348a678fecf03e193d81d866eb024fbff3884a5d27a18a058868634604051808473ffffffffffffffffffffffffffffffffffffffff1673ffffffffffffffffffffffffffffffffffffffff16815260200180602001838152602001828103825284818151815260200191508051906020019080838360005b8381101561107957808201518184015260208101905061105e565b50505050905090810190601f1680156110a65780820380516001836020036101000a031916815260200191505b5094505050505060405180910390a1505050505050565b6000600360008373ffffffffffffffffffffffffffffffffffffffff1673ffffffffffffffffffffffffffffffffffffffff16815260200190815260200160002060010160009054906101000a900460ff169050919050565b6000809054906101000a900473ffffffffffffffffffffffffffffffffffffffff1673ffffffffffffffffffffffffffffffffffffffff163373ffffffffffffffffffffffffffffffffffffffff1614151561117157600080fd5b6000809054906101000a900473ffffffffffffffffffffffffffffffffffffffff1673ffffffffffffffffffffffffffffffffffffffff166108fc6002549081150290604051600060405180830381858888f193505050501580156111da573d6000803e3d6000fd5b507fc4a9fb192b4600264dcf192d3546d29c26071097bebf0a83b7b83b28bcc3ad016000809054906101000a900473ffffffffffffffffffffffffffffffffffffffff16600254604051808373ffffffffffffffffffffffffffffffffffffffff1673ffffffffffffffffffffffffffffffffffffffff1681526020018281526020019250505060405180910390a16000600281905550565b6000809054906101000a900473ffffffffffffffffffffffffffffffffffffffff1673ffffffffffffffffffffffffffffffffffffffff163373ffffffffffffffffffffffffffffffffffffffff161415156112ce57600080fd5b6112d7816115a0565b50565b60008060009054906101000a900473ffffffffffffffffffffffffffffffffffffffff1673ffffffffffffffffffffffffffffffffffffffff163373ffffffffffffffffffffffffffffffffffffffff16141561133a576001905061136c565b8173ffffffffffffffffffffffffffffffffffffffff163373ffffffffffffffffffffffffffffffffffffffff161490505b919050565b600061138c602060405190810160405280600081525061169a565b600019166113998361169a565b60001916149050919050565b600080600460009054906101000a900473ffffffffffffffffffffffffffffffffffffffff1673ffffffffffffffffffffffffffffffffffffffff166370a08231336040518263ffffffff167c0100000000000000000000000000000000000000000000000000000000028152600401808273ffffffffffffffffffffffffffffffffffffffff1673ffffffffffffffffffffffffffffffffffffffff168152602001915050602060405180830381600087803b15801561146557600080fd5b505af1158015611479573d6000803e3d6000fd5b505050506040513d602081101561148f57600080fd5b8101908080519060200190929190505050905082811015915050919050565b600060646114be83600154611772565b8115156114c757fe5b049050919050565b600081830190508281101515156114e257fe5b80905092915050565b60008282111515156114f957fe5b818303905092915050565b6000600360008473ffffffffffffffffffffffffffffffffffffffff1673ffffffffffffffffffffffffffffffffffffffff16815260200190815260200160002060000154905061155581836114cf565b600360008573ffffffffffffffffffffffffffffffffffffffff1673ffffffffffffffffffffffffffffffffffffffff16815260200190815260200160002060000181905550505050565b600073ffffffffffffffffffffffffffffffffffffffff168173ffffffffffffffffffffffffffffffffffffffff16141515156115dc57600080fd5b8073ffffffffffffffffffffffffffffffffffffffff166000809054906101000a900473ffffffffffffffffffffffffffffffffffffffff1673ffffffffffffffffffffffffffffffffffffffff167f8be0079c531659141344cd1fd0a4f28419497f9722a3daafe3b4186f6b6457e060405160405180910390a3806000806101000a81548173ffffffffffffffffffffffffffffffffffffffff021916908373ffffffffffffffffffffffffffffffffffffffff16021790555050565b6000816040516020018082805190602001908083835b6020831015156116d557805182526020820191506020810190506020830392506116b0565b6001836020036101000a0380198251168184511680821785525050505050509050019150506040516020818303038152906040526040518082805190602001908083835b60208310151561173e5780518252602082019150602081019050602083039250611719565b6001836020036101000a03801982511681845116808217855250505050505090500191505060405180910390209050919050565b60008083141561178557600090506117a4565b818302905081838281151561179657fe5b041415156117a057fe5b8090505b92915050565b60408051908101604052806000815260200160001515815250905600a165627a7a72305820d94c9cf4c943374b4d94453dd3004ec0fca8ccb2d7c2579fc5b12ddaf2af66f30029",
  "source": "pragma solidity ^0.4.23;\nimport \"./math/SafeMath.sol\";\nimport \"./ownership/Ownable.sol\";\nimport \"./GatewayERC20Contract.sol\";\n\ncontract PaymentGatewayContract is Ownable{\n    using SafeMath for uint256;\n    uint gatewayFeePercentage;\n    uint256 gatewayBalance;\n    mapping(address => Merchant) merchants;\n\n    GatewayERC20Contract tokenContract;\n\n    event AddMerchantEvent(address merchant);\n    event PaymentMadeEvent(address _merchant, string _reference, uint _amount);\n    event PaymentMadeInTokensEvent(address _merchant, string _reference, uint _tokenAmount);\n    event WithdrawGatewayFundsEvent(address _walletAddress, uint _amount);\n    event WithdrawPaymentEvent(address _walletAddress, uint _amount);\n\n    constructor() public {\n        gatewayFeePercentage = 10;\n        gatewayBalance = 0;\n    }\n\n    function setTokenContract(address _tokenContractAddress) public onlyOwner{\n        tokenContract = GatewayERC20Contract(_tokenContractAddress);\n    }\n\n    function getTokenContractAddress() public view returns(address){\n        return tokenContract;\n    }\n\n    function issueTokens(address _recipient, uint _amount) public onlyOwner{\n        tokenContract.issueTokens(_recipient, _amount);\n    }\n\n\n    function addMerchant(address _walletAddress) public onlyOwner {\n        require(!isExistingMerchant(_walletAddress));\n        Merchant memory newMerchant = Merchant({ balance: 0, created: true});\n        merchants[_walletAddress] = newMerchant;\n        emit AddMerchantEvent(_walletAddress);\n    }\n\n    function makePayment(address _merchantAddress, string _reference) payable allowedToMakePayment(_merchantAddress, _reference) public{\n        uint gatewayFee = calculateGatewayFee(msg.value);\n        gatewayBalance = SafeMath.add(gatewayBalance, gatewayFee);\n\n        uint merchantPayment = SafeMath.sub(msg.value, gatewayFee);\n        addPaymentToMerchantBalance(_merchantAddress, merchantPayment);\n\n        emit PaymentMadeEvent(_merchantAddress, _reference, msg.value);\n    }\n\n    function makePaymentInTokens(address _merchantAddress, string _reference, uint _tokenAmount) \n        allowedToMakePayment(_merchantAddress, _reference)\n        public{\n        require(hasSufficientTokensForTransfer(_tokenAmount));\n        tokenContract.gatewayTokenTransfer(msg.sender, _merchantAddress, _tokenAmount);\n        emit PaymentMadeInTokensEvent(_merchantAddress, _reference, _tokenAmount);\n    }\n\n    function addPaymentToMerchantBalance(address _merchantAddress, uint256 _paymentAmount) private {\n        uint256 currentBalance = merchants[_merchantAddress].balance;\n        merchants[_merchantAddress].balance = SafeMath.add(currentBalance, _paymentAmount);\n    }\n\n    function withdrawPayment(address _merchantAddress) public{\n        require(permittedToAccessAccount(_merchantAddress));\n        uint merchBalance = merchants[_merchantAddress].balance;\n        _merchantAddress.transfer(merchBalance);\n        merchants[_merchantAddress].balance = 0;\n        emit WithdrawPaymentEvent(_merchantAddress, merchBalance);\n    }\n\n    // Fees\n    function setGatewayFee(uint _newFee) onlyOwner public{\n        require(_newFee < 100);\n        gatewayFeePercentage = _newFee;\n    }\n\n    function withdrawGatewayFees() onlyOwner public{\n        owner.transfer(gatewayBalance);\n        emit WithdrawGatewayFundsEvent(owner, gatewayBalance);                \n        gatewayBalance = 0;\n    }\n\n    // Read only functions\n    function getMerchantBalance(address _merchantAddress) public view returns(address, uint){\n        require(permittedToAccessAccount(_merchantAddress));        \n        Merchant memory merchant = merchants[_merchantAddress];\n        return (_merchantAddress, merchant.balance);\n    }\n\n    function getGatewayBalance() public onlyOwner view returns(uint){\n        return gatewayBalance;\n    }\n\n    // Calculations\n    function calculateGatewayFee(uint _amount) private view returns(uint fee){\n        return SafeMath.mul(_amount, gatewayFeePercentage) / 100;\n    }\n\n    // Require functions\n    function permittedToAccessAccount(address _address) private view returns (bool valid){\n        if(msg.sender == owner){\n            return true;\n        }\n        return msg.sender == _address;\n    }\n\n    function isExistingMerchant(address _merchantAddress) public view returns (bool){\n        return merchants[_merchantAddress].created;\n    }\n\n    function isStringEqual(string _input_a, string _input_b) private pure returns(bool){\n        return keccakHash(_input_a) == keccakHash(_input_b);\n    }\n\n    function isStringEmpty(string _input) private pure returns(bool){\n        return keccakHash(_input) == keccakHash(\"\");\n    }\n\n\n    function keccakHash(string _input) private pure returns (bytes32){\n        return keccak256(abi.encodePacked(_input));\n    }\n\n    function hasSufficientTokensForTransfer(uint _amount) private view returns(bool){\n        uint balance = tokenContract.balanceOf(msg.sender);\n        return balance >= _amount;\n    }\n\n    function balanceOf(address tokenOwner) public view returns (uint balance) {\n            return tokenContract.balanceOf(tokenOwner);\n        }\n\n    modifier allowedToMakePayment(address _merchant, string _reference){\n        require(!isStringEmpty(_reference));\n        require(isExistingMerchant(_merchant));\n        _;\n    }\n\n    struct Merchant{\n        uint balance;\n        bool created;\n    }\n}",
  "sourcePath": "/Users/adamclarey/Sites/ethpaymentgateway/contracts/PaymentGatewayContract.sol",
  "compiler": {
    "name": "solc",
    "version": "0.4.23+commit.124ca40d.Emscripten.clang"
  },
  "schemaVersion": "2.0.0",
  "updatedAt": "2018-08-15T12:13:52.230Z"
}