{
  "contractName": "PaymentGatewayContract",
  "abi": [
    {
      "constant": true,
      "inputs": [],
      "name": "owner",
      "outputs": [
        {
          "name": "",
          "type": "address"
        }
      ],
      "payable": false,
      "stateMutability": "view",
      "type": "function"
    },
    {
      "constant": false,
      "inputs": [
        {
          "name": "_newOwner",
          "type": "address"
        }
      ],
      "name": "transferOwnership",
      "outputs": [],
      "payable": false,
      "stateMutability": "nonpayable",
      "type": "function"
    },
    {
      "inputs": [
        {
          "name": "_gatewayFee",
          "type": "uint256"
        },
        {
          "name": "_beneficiary",
          "type": "address"
        }
      ],
      "payable": false,
      "stateMutability": "nonpayable",
      "type": "constructor"
    },
    {
      "anonymous": false,
      "inputs": [
        {
          "indexed": false,
          "name": "merchant",
          "type": "address"
        }
      ],
      "name": "AddMerchantEvent",
      "type": "event"
    },
    {
      "anonymous": false,
      "inputs": [
        {
          "indexed": false,
          "name": "_merchant",
          "type": "address"
        },
        {
          "indexed": false,
          "name": "_reference",
          "type": "string"
        },
        {
          "indexed": false,
          "name": "_tokenAmount",
          "type": "uint256"
        }
      ],
      "name": "PaymentMadeInTokensEvent",
      "type": "event"
    },
    {
      "anonymous": false,
      "inputs": [
        {
          "indexed": false,
          "name": "_walletAddress",
          "type": "address"
        },
        {
          "indexed": false,
          "name": "_amount",
          "type": "uint256"
        }
      ],
      "name": "WithdrawGatewayFundsEvent",
      "type": "event"
    },
    {
      "anonymous": false,
      "inputs": [
        {
          "indexed": true,
          "name": "previousOwner",
          "type": "address"
        },
        {
          "indexed": true,
          "name": "newOwner",
          "type": "address"
        }
      ],
      "name": "OwnershipTransferred",
      "type": "event"
    },
    {
      "constant": false,
      "inputs": [
        {
          "name": "_tokenContractAddress",
          "type": "address"
        }
      ],
      "name": "setTokenContract",
      "outputs": [],
      "payable": false,
      "stateMutability": "nonpayable",
      "type": "function"
    },
    {
      "constant": true,
      "inputs": [],
      "name": "getTokenContractAddress",
      "outputs": [
        {
          "name": "",
          "type": "address"
        }
      ],
      "payable": false,
      "stateMutability": "view",
      "type": "function"
    },
    {
      "constant": false,
      "inputs": [
        {
          "name": "_walletAddress",
          "type": "address"
        }
      ],
      "name": "addMerchant",
      "outputs": [],
      "payable": false,
      "stateMutability": "nonpayable",
      "type": "function"
    },
    {
      "constant": false,
      "inputs": [
        {
          "name": "_merchantAddress",
          "type": "address"
        },
        {
          "name": "_reference",
          "type": "string"
        },
        {
          "name": "_tokenAmount",
          "type": "uint256"
        }
      ],
      "name": "makePaymentInTokens",
      "outputs": [],
      "payable": false,
      "stateMutability": "nonpayable",
      "type": "function"
    },
    {
      "constant": false,
      "inputs": [
        {
          "name": "_newFee",
          "type": "uint256"
        }
      ],
      "name": "setGatewayFee",
      "outputs": [],
      "payable": false,
      "stateMutability": "nonpayable",
      "type": "function"
    },
    {
      "constant": true,
      "inputs": [
        {
          "name": "_merchantAddress",
          "type": "address"
        }
      ],
      "name": "isExistingMerchant",
      "outputs": [
        {
          "name": "",
          "type": "bool"
        }
      ],
      "payable": false,
      "stateMutability": "view",
      "type": "function"
    }
  ],
  "bytecode": "0x608060405234801561001057600080fd5b5060405160408061101b8339810180604052810190808051906020019092919080519060200190929190505050336000806101000a81548173ffffffffffffffffffffffffffffffffffffffff021916908373ffffffffffffffffffffffffffffffffffffffff1602179055508160018190555080600360006101000a81548173ffffffffffffffffffffffffffffffffffffffff021916908373ffffffffffffffffffffffffffffffffffffffff16021790555060006002819055505050610f3d806100de6000396000f30060806040526004361061008e576000357c0100000000000000000000000000000000000000000000000000000000900463ffffffff16806322e455841461009357806346a0ff42146100ea5780636e9f7472146101175780638da5cb5b146101aa578063bbcd5bbe14610201578063bf76c0ef14610244578063ce30448414610287578063f2fde38b146102e2575b600080fd5b34801561009f57600080fd5b506100a8610325565b604051808273ffffffffffffffffffffffffffffffffffffffff1673ffffffffffffffffffffffffffffffffffffffff16815260200191505060405180910390f35b3480156100f657600080fd5b506101156004803603810190808035906020019092919050505061034f565b005b34801561012357600080fd5b506101a8600480360381019080803573ffffffffffffffffffffffffffffffffffffffff169060200190929190803590602001908201803590602001908080601f0160208091040260200160405190810160405280939291908181526020018383808284378201915050505050509192919290803590602001909291905050506103c3565b005b3480156101b657600080fd5b506101bf610889565b604051808273ffffffffffffffffffffffffffffffffffffffff1673ffffffffffffffffffffffffffffffffffffffff16815260200191505060405180910390f35b34801561020d57600080fd5b50610242600480360381019080803573ffffffffffffffffffffffffffffffffffffffff1690602001909291905050506108ae565b005b34801561025057600080fd5b50610285600480360381019080803573ffffffffffffffffffffffffffffffffffffffff16906020019092919050505061094d565b005b34801561029357600080fd5b506102c8600480360381019080803573ffffffffffffffffffffffffffffffffffffffff169060200190929190505050610ab4565b604051808215151515815260200191505060405180910390f35b3480156102ee57600080fd5b50610323600480360381019080803573ffffffffffffffffffffffffffffffffffffffff169060200190929190505050610b0d565b005b6000600560009054906101000a900473ffffffffffffffffffffffffffffffffffffffff16905090565b6000809054906101000a900473ffffffffffffffffffffffffffffffffffffffff1673ffffffffffffffffffffffffffffffffffffffff163373ffffffffffffffffffffffffffffffffffffffff161415156103aa57600080fd5b6064811015156103b957600080fd5b8060018190555050565b600080600085856103d381610b74565b1515156103df57600080fd5b6103e882610ab4565b15156103f357600080fd5b6103fc86610ba8565b151561040757600080fd5b61041086610cb1565b945061041c8686610cd2565b9350849250600560009054906101000a900473ffffffffffffffffffffffffffffffffffffffff1673ffffffffffffffffffffffffffffffffffffffff16636e5089e1338a876040518463ffffffff167c0100000000000000000000000000000000000000000000000000000000028152600401808473ffffffffffffffffffffffffffffffffffffffff1673ffffffffffffffffffffffffffffffffffffffff1681526020018373ffffffffffffffffffffffffffffffffffffffff1673ffffffffffffffffffffffffffffffffffffffff1681526020018281526020019350505050602060405180830381600087803b15801561051a57600080fd5b505af115801561052e573d6000803e3d6000fd5b505050506040513d602081101561054457600080fd5b8101908080519060200190929190505050507f61052ba846455d626b94b6ca75f12c7de1dbb1776c57b358d61a8a233ac55813888886604051808473ffffffffffffffffffffffffffffffffffffffff1673ffffffffffffffffffffffffffffffffffffffff16815260200180602001838152602001828103825284818151815260200191508051906020019080838360005b838110156105f25780820151818401526020810190506105d7565b50505050905090810190601f16801561061f5780820380516001836020036101000a031916815260200191505b5094505050505060405180910390a1600560009054906101000a900473ffffffffffffffffffffffffffffffffffffffff1673ffffffffffffffffffffffffffffffffffffffff16636e5089e133600360009054906101000a900473ffffffffffffffffffffffffffffffffffffffff16866040518463ffffffff167c0100000000000000000000000000000000000000000000000000000000028152600401808473ffffffffffffffffffffffffffffffffffffffff1673ffffffffffffffffffffffffffffffffffffffff1681526020018373ffffffffffffffffffffffffffffffffffffffff1673ffffffffffffffffffffffffffffffffffffffff1681526020018281526020019350505050602060405180830381600087803b15801561074957600080fd5b505af115801561075d573d6000803e3d6000fd5b505050506040513d602081101561077357600080fd5b8101908080519060200190929190505050507f61052ba846455d626b94b6ca75f12c7de1dbb1776c57b358d61a8a233ac55813600360009054906101000a900473ffffffffffffffffffffffffffffffffffffffff168885604051808473ffffffffffffffffffffffffffffffffffffffff1673ffffffffffffffffffffffffffffffffffffffff16815260200180602001838152602001828103825284818151815260200191508051906020019080838360005b83811015610843578082015181840152602081019050610828565b50505050905090810190601f1680156108705780820380516001836020036101000a031916815260200191505b5094505050505060405180910390a15050505050505050565b6000809054906101000a900473ffffffffffffffffffffffffffffffffffffffff1681565b6000809054906101000a900473ffffffffffffffffffffffffffffffffffffffff1673ffffffffffffffffffffffffffffffffffffffff163373ffffffffffffffffffffffffffffffffffffffff1614151561090957600080fd5b80600560006101000a81548173ffffffffffffffffffffffffffffffffffffffff021916908373ffffffffffffffffffffffffffffffffffffffff16021790555050565b610955610ef5565b6000809054906101000a900473ffffffffffffffffffffffffffffffffffffffff1673ffffffffffffffffffffffffffffffffffffffff163373ffffffffffffffffffffffffffffffffffffffff161415156109b057600080fd5b6109b982610ab4565b1515156109c557600080fd5b60408051908101604052806000815260200160011515815250905080600460008473ffffffffffffffffffffffffffffffffffffffff1673ffffffffffffffffffffffffffffffffffffffff1681526020019081526020016000206000820151816000015560208201518160010160006101000a81548160ff0219169083151502179055509050507f0b9a48907377b43ed369cfb9f3a6e0a227cc67c0c3d021a6d730ead8092a1f5f82604051808273ffffffffffffffffffffffffffffffffffffffff1673ffffffffffffffffffffffffffffffffffffffff16815260200191505060405180910390a15050565b6000600460008373ffffffffffffffffffffffffffffffffffffffff1673ffffffffffffffffffffffffffffffffffffffff16815260200190815260200160002060010160009054906101000a900460ff169050919050565b6000809054906101000a900473ffffffffffffffffffffffffffffffffffffffff1673ffffffffffffffffffffffffffffffffffffffff163373ffffffffffffffffffffffffffffffffffffffff16141515610b6857600080fd5b610b7181610ceb565b50565b6000610b8f6020604051908101604052806000815250610de5565b60001916610b9c83610de5565b60001916149050919050565b600080600560009054906101000a900473ffffffffffffffffffffffffffffffffffffffff1673ffffffffffffffffffffffffffffffffffffffff166370a08231336040518263ffffffff167c0100000000000000000000000000000000000000000000000000000000028152600401808273ffffffffffffffffffffffffffffffffffffffff1673ffffffffffffffffffffffffffffffffffffffff168152602001915050602060405180830381600087803b158015610c6857600080fd5b505af1158015610c7c573d6000803e3d6000fd5b505050506040513d6020811015610c9257600080fd5b8101908080519060200190929190505050905082811015915050919050565b60006064610cc183600154610ebd565b811515610cca57fe5b049050919050565b6000828211151515610ce057fe5b818303905092915050565b600073ffffffffffffffffffffffffffffffffffffffff168173ffffffffffffffffffffffffffffffffffffffff1614151515610d2757600080fd5b8073ffffffffffffffffffffffffffffffffffffffff166000809054906101000a900473ffffffffffffffffffffffffffffffffffffffff1673ffffffffffffffffffffffffffffffffffffffff167f8be0079c531659141344cd1fd0a4f28419497f9722a3daafe3b4186f6b6457e060405160405180910390a3806000806101000a81548173ffffffffffffffffffffffffffffffffffffffff021916908373ffffffffffffffffffffffffffffffffffffffff16021790555050565b6000816040516020018082805190602001908083835b602083101515610e205780518252602082019150602081019050602083039250610dfb565b6001836020036101000a0380198251168184511680821785525050505050509050019150506040516020818303038152906040526040518082805190602001908083835b602083101515610e895780518252602082019150602081019050602083039250610e64565b6001836020036101000a03801982511681845116808217855250505050505090500191505060405180910390209050919050565b600080831415610ed05760009050610eef565b8183029050818382811515610ee157fe5b04141515610eeb57fe5b8090505b92915050565b60408051908101604052806000815260200160001515815250905600a165627a7a723058209bc63e1bfdc5ad2e78ff0fe1b5c4928df1819c2f01691968bffeb6906427feb20029",
  "source": "pragma solidity ^0.4.23;\nimport \"./math/SafeMath.sol\";\nimport \"./ownership/Ownable.sol\";\nimport \"./GatewayERC20Contract.sol\";\n\ncontract PaymentGatewayContract is Ownable{\n    using SafeMath for uint256;\n    uint256 gatewayFeePercentage;\n    uint256 gatewayBalance;\n    address beneficiary;\n    mapping(address => Merchant) merchants;\n\n    GatewayERC20Contract tokenContract;\n\n    event AddMerchantEvent(address merchant);\n  //  event PaymentMadeEvent(address _merchant, string _reference, uint _amount);\n    event PaymentMadeInTokensEvent(address _merchant, string _reference, uint _tokenAmount);\n    event WithdrawGatewayFundsEvent(address _walletAddress, uint _amount);\n   // event WithdrawPaymentEvent(address _walletAddress, uint _amount);\n\n\n// Needs way to forward on in event of new contract\n\n    constructor(uint256 _gatewayFee, address _beneficiary) \n    public\n    {\n        gatewayFeePercentage = _gatewayFee;\n        beneficiary = _beneficiary;\n        gatewayBalance = 0;\n    }\n\n    function setTokenContract(address _tokenContractAddress) \n    public\n    onlyOwner\n    {\n        tokenContract = GatewayERC20Contract(_tokenContractAddress);\n    }\n\n    function getTokenContractAddress() \n    public\n    view \n    returns(address)\n    {\n        return tokenContract;\n    }\n\n// Is this required?\n//    function issueTokens(address _recipient, uint _amount) public onlyOwner{\n//        tokenContract.issueTokens(_recipient, _amount);\n//    }\n\n\n    function addMerchant(address _walletAddress) \n    public\n    onlyOwner \n    {\n        require(!isExistingMerchant(_walletAddress));\n        Merchant memory newMerchant = Merchant({ balance: 0, created: true});\n        merchants[_walletAddress] = newMerchant;\n        emit AddMerchantEvent(_walletAddress);\n    }\n\n// Can possibly remove\n//    function makePayment(address _merchantAddress, string _reference) payable allowedToMakePayment(_merchantAddress, _reference) public{\n//        uint gatewayFee = calculateGatewayFee(msg.value);\n//        gatewayBalance = SafeMath.add(gatewayBalance, gatewayFee);\n\n//        uint merchantPayment = SafeMath.sub(msg.value, gatewayFee);\n//        addPaymentToMerchantBalance(_merchantAddress, merchantPayment);\n\n//        emit PaymentMadeEvent(_merchantAddress, _reference, msg.value);\n//    }\n\n// needs to take gateway fee percentage\n// Is it cheaper to make 2 contract calls here or do the logic in erc20 contract?\n\n    function makePaymentInTokens(address _merchantAddress, string _reference, uint _tokenAmount) \n    public\n    allowedToMakePayment(_merchantAddress, _reference)\n    {\n        require(hasSufficientTokensForTransfer(_tokenAmount));\n        uint transactionFee = calculateGatewayFee(_tokenAmount); // int ?\n        uint merchantFee = SafeMath.sub(_tokenAmount, transactionFee);\n        uint ownerFee = transactionFee;\n\n        tokenContract.gatewayTokenTransfer(msg.sender, _merchantAddress, merchantFee );\n        emit PaymentMadeInTokensEvent(_merchantAddress, _reference, merchantFee);\n\n        tokenContract.gatewayTokenTransfer(msg.sender, beneficiary, ownerFee );\n        emit PaymentMadeInTokensEvent(beneficiary, _reference, ownerFee); // how to alter reference string?\n    }\n\n//    function addPaymentToMerchantBalance(address _merchantAddress, uint256 _paymentAmount) private {\n//        uint256 currentBalance = merchants[_merchantAddress].balance;\n//        merchants[_merchantAddress].balance = SafeMath.add(currentBalance, _paymentAmount);\n//    }\n\n//    function withdrawPayment(address _merchantAddress) public{\n//        require(permittedToAccessAccount(_merchantAddress));\n//        uint merchBalance = merchants[_merchantAddress].balance;\n//        _merchantAddress.transfer(merchBalance);\n//        merchants[_merchantAddress].balance = 0;\n//        emit WithdrawPaymentEvent(_merchantAddress, merchBalance);\n//    }\n\n    // Fees\n    function setGatewayFee(uint _newFee) \n    public\n    onlyOwner \n    {\n        require(_newFee < 100);\n        gatewayFeePercentage = _newFee;\n    }\n\n//    function withdrawGatewayFees() onlyOwner public{\n//        owner.transfer(gatewayBalance);\n//        emit WithdrawGatewayFundsEvent(owner, gatewayBalance);\n//        gatewayBalance = 0;\n//    }\n\n    // Read only functions\n//    function getMerchantBalance(address _merchantAddress) public view returns(address, uint){\n//        require(permittedToAccessAccount(_merchantAddress));\n//        Merchant memory merchant = merchants[_merchantAddress];\n//        return (_merchantAddress, merchant.balance);\n//    }\n\n//    function getGatewayBalance() public onlyOwner view returns(uint){\n//        return gatewayBalance;\n//    }\n\n    // Calculations\n    function calculateGatewayFee(uint _amount) \n    private \n    view \n    returns(uint fee) {\n        return SafeMath.mul(_amount, gatewayFeePercentage) / 100;\n    }\n\n    // Require functions\n//    function permittedToAccessAccount(address _address) private view returns (bool valid){\n//        if(msg.sender == owner){\n//            return true;\n//        }\n//        return msg.sender == _address;\n//    }\n\n    function isExistingMerchant(address _merchantAddress) \n    public \n    view \n    returns (bool)\n    {\n        return merchants[_merchantAddress].created;\n    }\n\n    function isStringEqual(string _input_a, string _input_b) private pure returns(bool)\n    {\n        return keccakHash(_input_a) == keccakHash(_input_b);\n    }\n\n    function isStringEmpty(string _input) \n    private \n    pure \n    returns(bool)\n    {\n        return keccakHash(_input) == keccakHash(\"\");\n    }\n\n\n    function keccakHash(string _input) private pure returns (bytes32)\n    {\n        return keccak256(abi.encodePacked(_input));\n    }\n\n    function hasSufficientTokensForTransfer(uint _amount) private view returns(bool)\n    {\n        uint balance = tokenContract.balanceOf(msg.sender);\n        return balance >= _amount;\n    }\n\n// is this required as this can be used directly on erc20 contract ?\n\n//    function balanceOf(address tokenOwner) public view returns (uint balance) {\n//            return tokenContract.balanceOf(tokenOwner);\n//        }\n\n    modifier allowedToMakePayment(address _merchant, string _reference)\n    {\n        require(!isStringEmpty(_reference));\n        require(isExistingMerchant(_merchant));\n        _;\n    }\n\n    struct Merchant{\n        uint balance;\n        bool created;\n    }\n}",
  "sourcePath": "/Users/x/Documents/webs/ethpaymentgateway/contracts/PaymentGatewayContract.sol",
  "compiler": {
    "name": "solc",
    "version": "0.4.24+commit.e67f0147.Emscripten.clang"
  },
  "schemaVersion": "2.0.1",
  "updatedAt": "2018-10-31T13:05:09.503Z"
}