{
  "contractName": "Presale",
  "abi": [
    {
      "constant": true,
      "inputs": [],
      "name": "deadline",
      "outputs": [
        {
          "name": "",
          "type": "uint256"
        }
      ],
      "payable": false,
      "stateMutability": "view",
      "type": "function"
    },
    {
      "constant": true,
      "inputs": [],
      "name": "beneficiary",
      "outputs": [
        {
          "name": "",
          "type": "address"
        }
      ],
      "payable": false,
      "stateMutability": "view",
      "type": "function"
    },
    {
      "constant": true,
      "inputs": [],
      "name": "minimumSpend",
      "outputs": [
        {
          "name": "",
          "type": "uint256"
        }
      ],
      "payable": false,
      "stateMutability": "view",
      "type": "function"
    },
    {
      "constant": true,
      "inputs": [
        {
          "name": "",
          "type": "address"
        }
      ],
      "name": "balanceOf",
      "outputs": [
        {
          "name": "",
          "type": "uint256"
        }
      ],
      "payable": false,
      "stateMutability": "view",
      "type": "function"
    },
    {
      "constant": true,
      "inputs": [],
      "name": "startTime",
      "outputs": [
        {
          "name": "",
          "type": "uint256"
        }
      ],
      "payable": false,
      "stateMutability": "view",
      "type": "function"
    },
    {
      "constant": true,
      "inputs": [],
      "name": "fundingGoal",
      "outputs": [
        {
          "name": "",
          "type": "uint256"
        }
      ],
      "payable": false,
      "stateMutability": "view",
      "type": "function"
    },
    {
      "constant": true,
      "inputs": [],
      "name": "amountRaised",
      "outputs": [
        {
          "name": "",
          "type": "uint256"
        }
      ],
      "payable": false,
      "stateMutability": "view",
      "type": "function"
    },
    {
      "constant": true,
      "inputs": [],
      "name": "price",
      "outputs": [
        {
          "name": "",
          "type": "uint256"
        }
      ],
      "payable": false,
      "stateMutability": "view",
      "type": "function"
    },
    {
      "constant": true,
      "inputs": [],
      "name": "techFund",
      "outputs": [
        {
          "name": "",
          "type": "address"
        }
      ],
      "payable": false,
      "stateMutability": "view",
      "type": "function"
    },
    {
      "inputs": [
        {
          "name": "addressOfTokenUsedAsReward",
          "type": "address"
        },
        {
          "name": "ifSuccessfulSendTo",
          "type": "address"
        },
        {
          "name": "ifSuccessfulSendToTech",
          "type": "address"
        },
        {
          "name": "fundingGoalInEthers",
          "type": "uint256"
        },
        {
          "name": "durationInMinutes",
          "type": "uint256"
        },
        {
          "name": "etherCostOfEachToken",
          "type": "uint256"
        },
        {
          "name": "_minimumSpend",
          "type": "uint256"
        }
      ],
      "payable": false,
      "stateMutability": "nonpayable",
      "type": "constructor"
    },
    {
      "payable": true,
      "stateMutability": "payable",
      "type": "fallback"
    },
    {
      "anonymous": false,
      "inputs": [
        {
          "indexed": true,
          "name": "recipient",
          "type": "address"
        },
        {
          "indexed": false,
          "name": "totalAmountRaised",
          "type": "uint256"
        }
      ],
      "name": "GoalReached",
      "type": "event"
    },
    {
      "anonymous": false,
      "inputs": [
        {
          "indexed": true,
          "name": "backer",
          "type": "address"
        },
        {
          "indexed": false,
          "name": "amount",
          "type": "uint256"
        },
        {
          "indexed": false,
          "name": "isContribution",
          "type": "bool"
        }
      ],
      "name": "FundTransfer",
      "type": "event"
    },
    {
      "constant": true,
      "inputs": [],
      "name": "getTokenContractAddress",
      "outputs": [
        {
          "name": "",
          "type": "address"
        }
      ],
      "payable": false,
      "stateMutability": "view",
      "type": "function"
    },
    {
      "constant": false,
      "inputs": [],
      "name": "checkGoalReached",
      "outputs": [],
      "payable": false,
      "stateMutability": "nonpayable",
      "type": "function"
    },
    {
      "constant": true,
      "inputs": [],
      "name": "balance",
      "outputs": [
        {
          "name": "",
          "type": "uint256"
        }
      ],
      "payable": false,
      "stateMutability": "view",
      "type": "function"
    },
    {
      "constant": false,
      "inputs": [],
      "name": "safeWithdrawal",
      "outputs": [],
      "payable": false,
      "stateMutability": "nonpayable",
      "type": "function"
    }
  ],
  "bytecode": "0x60806040526000600960006101000a81548160ff0219169083151502179055506000600960016101000a81548160ff02191690831515021790555034801561004657600080fd5b5060405160e080610e708339810180604052810190808051906020019092919080519060200190929190805190602001909291908051906020019092919080519060200190929190805190602001909291908051906020019092919050505086600960026101000a81548173ffffffffffffffffffffffffffffffffffffffff021916908373ffffffffffffffffffffffffffffffffffffffff16021790555042600581905550856000806101000a81548173ffffffffffffffffffffffffffffffffffffffff021916908373ffffffffffffffffffffffffffffffffffffffff16021790555084600160006101000a81548173ffffffffffffffffffffffffffffffffffffffff021916908373ffffffffffffffffffffffffffffffffffffffff160217905550670de0b6b3a76400008402600281905550603c830242016004819055506001820260068190555066038d7ea4c68000810260078190555050505050505050610cb5806101bb6000396000f3006080604052600436106100c5576000357c0100000000000000000000000000000000000000000000000000000000900463ffffffff16806301cb3b201461035b57806322e455841461037257806329dcb0cf146103c957806338af3eed146103f4578063428f180c1461044b57806370a082311461047657806378e97925146104cd5780637a3a0e84146104f85780637b3e5e7b14610523578063a035b1fe1461054e578063a6ceb42814610579578063b69ef8a8146105d0578063fd6b7ef8146105fb575b600080600960019054906101000a900460ff161515156100e457600080fd5b60075434111515610183576040517f08c379a000000000000000000000000000000000000000000000000000000000815260040180806020018281038252602c8152602001807f56616c7565206d757374206275742062652067726561746572207468616e206d81526020017f696e696d756d207370656e64000000000000000000000000000000000000000081525060400191505060405180910390fd5b34915081600860003373ffffffffffffffffffffffffffffffffffffffff1673ffffffffffffffffffffffffffffffffffffffff16815260200190815260200160002060008282540192505081905550816003600082825401925050819055506101ec82610612565b9050600960029054906101000a900473ffffffffffffffffffffffffffffffffffffffff1673ffffffffffffffffffffffffffffffffffffffff1663a9059cbb336006548481151561023a57fe5b046040518363ffffffff167c0100000000000000000000000000000000000000000000000000000000028152600401808373ffffffffffffffffffffffffffffffffffffffff1673ffffffffffffffffffffffffffffffffffffffff16815260200182815260200192505050602060405180830381600087803b1580156102c057600080fd5b505af11580156102d4573d6000803e3d6000fd5b505050506040513d60208110156102ea57600080fd5b8101908080519060200190929190505050503373ffffffffffffffffffffffffffffffffffffffff167fe842aea7a5f1b01049d752008c53c52890b1a6daf660cf39e8eec506112bbdf682600160405180838152602001821515151581526020019250505060405180910390a25050005b34801561036757600080fd5b50610370610648565b005b34801561037e57600080fd5b50610387610805565b604051808273ffffffffffffffffffffffffffffffffffffffff1673ffffffffffffffffffffffffffffffffffffffff16815260200191505060405180910390f35b3480156103d557600080fd5b506103de61082f565b6040518082815260200191505060405180910390f35b34801561040057600080fd5b50610409610835565b604051808273ffffffffffffffffffffffffffffffffffffffff1673ffffffffffffffffffffffffffffffffffffffff16815260200191505060405180910390f35b34801561045757600080fd5b5061046061085a565b6040518082815260200191505060405180910390f35b34801561048257600080fd5b506104b7600480360381019080803573ffffffffffffffffffffffffffffffffffffffff169060200190929190505050610860565b6040518082815260200191505060405180910390f35b3480156104d957600080fd5b506104e2610878565b6040518082815260200191505060405180910390f35b34801561050457600080fd5b5061050d61087e565b6040518082815260200191505060405180910390f35b34801561052f57600080fd5b50610538610884565b6040518082815260200191505060405180910390f35b34801561055a57600080fd5b5061056361088a565b6040518082815260200191505060405180910390f35b34801561058557600080fd5b5061058e610890565b604051808273ffffffffffffffffffffffffffffffffffffffff1673ffffffffffffffffffffffffffffffffffffffff16815260200191505060405180910390f35b3480156105dc57600080fd5b506105e56108b6565b6040518082815260200191505060405180910390f35b34801561060757600080fd5b506106106108c0565b005b60004262093a8060055401111561062e57600282029050610643565b6003600a8381151561063c57fe5b0402820190505b919050565b60006004544210151561080257600960029054906101000a900473ffffffffffffffffffffffffffffffffffffffff1673ffffffffffffffffffffffffffffffffffffffff166370a08231306040518263ffffffff167c0100000000000000000000000000000000000000000000000000000000028152600401808273ffffffffffffffffffffffffffffffffffffffff1673ffffffffffffffffffffffffffffffffffffffff168152602001915050602060405180830381600087803b15801561071257600080fd5b505af1158015610726573d6000803e3d6000fd5b505050506040513d602081101561073c57600080fd5b810190808051906020019092919050505090506000811115156107e6576001600960006101000a81548160ff0219169083151502179055506000809054906101000a900473ffffffffffffffffffffffffffffffffffffffff1673ffffffffffffffffffffffffffffffffffffffff167fec3f991caf7857d61663fd1bba1739e04abd4781238508cde554bb849d790c856003546040518082815260200191505060405180910390a25b6001600960016101000a81548160ff0219169083151502179055505b50565b6000600960029054906101000a900473ffffffffffffffffffffffffffffffffffffffff16905090565b60045481565b6000809054906101000a900473ffffffffffffffffffffffffffffffffffffffff1681565b60075481565b60086020528060005260406000206000915090505481565b60055481565b60025481565b60035481565b60065481565b600160009054906101000a900473ffffffffffffffffffffffffffffffffffffffff1681565b6000600354905090565b600060045442101515610c8657600960009054906101000a900460ff161515610a1757600860003373ffffffffffffffffffffffffffffffffffffffff1673ffffffffffffffffffffffffffffffffffffffff1681526020019081526020016000205490506000811115610a16573373ffffffffffffffffffffffffffffffffffffffff166108fc829081150290604051600060405180830381858888f19350505050158015610974573d6000803e3d6000fd5b506000600860003373ffffffffffffffffffffffffffffffffffffffff1673ffffffffffffffffffffffffffffffffffffffff168152602001908152602001600020819055503373ffffffffffffffffffffffffffffffffffffffff167fe842aea7a5f1b01049d752008c53c52890b1a6daf660cf39e8eec506112bbdf682600060405180838152602001821515151581526020019250505060405180910390a25b5b600960009054906101000a900460ff168015610a7f57503373ffffffffffffffffffffffffffffffffffffffff166000809054906101000a900473ffffffffffffffffffffffffffffffffffffffff1673ffffffffffffffffffffffffffffffffffffffff16145b15610c85576000809054906101000a900473ffffffffffffffffffffffffffffffffffffffff1673ffffffffffffffffffffffffffffffffffffffff166108fc60038054811515610acc57fe5b049081150290604051600060405180830381858888f19350505050158015610af8573d6000803e3d6000fd5b50600160009054906101000a900473ffffffffffffffffffffffffffffffffffffffff1673ffffffffffffffffffffffffffffffffffffffff166108fc6004600354811515610b4357fe5b049081150290604051600060405180830381858888f19350505050158015610b6f573d6000803e3d6000fd5b506000809054906101000a900473ffffffffffffffffffffffffffffffffffffffff1673ffffffffffffffffffffffffffffffffffffffff167fe842aea7a5f1b01049d752008c53c52890b1a6daf660cf39e8eec506112bbdf660038054811515610bd657fe5b04600060405180838152602001821515151581526020019250505060405180910390a2600160009054906101000a900473ffffffffffffffffffffffffffffffffffffffff1673ffffffffffffffffffffffffffffffffffffffff167fe842aea7a5f1b01049d752008c53c52890b1a6daf660cf39e8eec506112bbdf66004600354811515610c6157fe5b04600060405180838152602001821515151581526020019250505060405180910390a25b5b505600a165627a7a72305820236f2b276988a1a7a6016d3c317ac4e4b517c0deba14356bb72218ad527dc0a80029",
  "source": "pragma solidity ^0.4.23;\n\nimport \"./ownership/Ownable.sol\";\nimport \"./GatewayERC20Contract.sol\";\n\ncontract Presale {\n\n    // Ask adam... public or private\n    address public beneficiary;\n    address public techFund;\n    uint public fundingGoal;\n    uint public amountRaised;\n    uint public deadline;\n    uint public startTime;\n    uint public price;\n    uint public minimumSpend;\n    // @todo this should be disambiguated from erc20 token balance of\n    mapping(address => uint256) public balanceOf;\n    bool fundingGoalReached = false;\n    bool crowdsaleClosed = false;\n\n    GatewayERC20Contract tokenContract;\n\n    event GoalReached(address indexed recipient, uint256 totalAmountRaised);\n    event FundTransfer(address indexed backer, uint amount, bool isContribution);\n\n    // what happens if targets are not met!?\n// should have 'stop' / 'start' flags ?\n\n    /**\n     * Constructor function\n     *\n     * Setup the owner\n     */\n    constructor(\n        address addressOfTokenUsedAsReward,\n        address ifSuccessfulSendTo,\n        address ifSuccessfulSendToTech,\n        uint fundingGoalInEthers,\n        uint durationInMinutes,\n        uint etherCostOfEachToken,\n        uint _minimumSpend\n    ) public {\n        tokenContract = GatewayERC20Contract(addressOfTokenUsedAsReward);\n        startTime = now;\n        beneficiary = ifSuccessfulSendTo;\n        techFund = ifSuccessfulSendToTech;\n        fundingGoal = fundingGoalInEthers * 1 ether;\n        deadline = now + durationInMinutes * 1 minutes; // consider using blocktime\n        price = etherCostOfEachToken * 1 wei;\n        minimumSpend = _minimumSpend * 1 finney;\n    }\n\n    function getTokenContractAddress() \n    public \n    view \n    returns(address)\n    {\n        return tokenContract;\n    }\n\n    /**\n     * Fallback function\n     *\n     * The function without name is the default function that is called whenever anyone sends funds to a contract\n     */\n    function () \n    public \n    payable \n    {\n        require(!crowdsaleClosed);\n        require(msg.value > minimumSpend, \"Value must but be greater than minimum spend\");\n        uint256 amount = msg.value;\n        balanceOf[msg.sender] += amount;\n        amountRaised += amount;\n        \n        // Offer discount for volume\n        // should this also include the amount a user has already desposited?\n        uint256 discount = getRate(amount);\n        // should be using safe math here and assign variable before use (imo)\n        tokenContract.transfer(msg.sender, discount / price);\n\n        //tokenContract.transfer(msg.sender, amount / price);\n        emit FundTransfer(msg.sender, discount, true);\n    }\n\n    modifier afterDeadline() \n    {\n        if (block.timestamp >= deadline) {\n            _;  \n        }\n        \n    }\n\n    /**\n     * Check if goal was reached\n     *\n     * Checks if the goal or time limit has been reached and ends the campaign\n     */\n    function checkGoalReached() public afterDeadline {\n\n        uint balance = tokenContract.balanceOf(address(this));\n        // ? huh ?\n        if (balance <= 0){\n            fundingGoalReached = true;\n            emit GoalReached(beneficiary, amountRaised);\n        }\n        crowdsaleClosed = true;\n    }\n\n    // Should disambugaute what value we are retrieved by adding noun to balance\n    /**\n    * Check balance\n    */\n    function balance() \n    public \n    view \n    returns (uint) \n    {\n        return amountRaised;\n    }\n\n\n    /**\n     * Withdraw the funds\n     *\n     * Checks to see if goal or time limit has been reached, and if so, and the funding goal was reached,\n     * sends the entire amount to the beneficiary. If goal was not reached, each contributor can withdraw\n     * the amount they contributed.\n     */\n    function safeWithdrawal() \n    public \n    afterDeadline \n    {\n        if (!fundingGoalReached) {\n        \n            uint256 amount = balanceOf[msg.sender];\n\n            if (amount > 0) {\n                msg.sender.transfer(amount);\n                balanceOf[msg.sender] = 0;\n                emit FundTransfer(msg.sender, amount, false);\n            }\n        }\n\n        if (fundingGoalReached && beneficiary == msg.sender) {\n            // Why divided by 3 and 4 \n            // these values should be set as constants \n            // elsewhere or in here\n            beneficiary.transfer(amountRaised / 3);\n            techFund.transfer(amountRaised / 4);\n            emit FundTransfer(beneficiary, amountRaised / 3, false);\n            emit FundTransfer(techFund, amountRaised / 4, false);\n            // } else {\n            //     // why would the transfer fail and why would we unlock it, and how would that unlock it -- it is already defaulted to fales\n            //     //If we fail to send the funds to beneficiary, unlock funders balance\n            //     fundingGoalReached = false;\n            // }\n        }\n    }\n\n    // What happens if the whole thing is games a bogey?\n\n    // @todo suggest starting in a block...\n    function getRate(uint256 _amount) \n    internal\n    view  \n    returns(uint256) \n    {\n        // easier to use an array for this logic... \n        // divide and multiple \n        // perhaps we should pass in an array of blocktimes \n        // double seems a bit nuts -- it's a bit extreme\n        // If this is a presale, then how will the sale be managed...\n        // blocknumber...\n        // pass in two arrays. One containing \n        if (startTime + 1 weeks > now) {\n            return _amount * 2; //number of tokens in week 1\n        //} else if (startTime + 2 weeks > now) {\n        //        return 750; //number of tokens in week 2\n        //} else if (startTime + 3 weeks > now) {\n        //        return 500; //number of tokens in week 3\n        } else {\n            return _amount + ((_amount / 10) * 3);\n        }\n    }\n}",
  "sourcePath": "/Users/x/Documents/webs/ethpaymentgateway/contracts/Presale.sol",
  "compiler": {
    "name": "solc",
    "version": "0.4.24+commit.e67f0147.Emscripten.clang"
  },
  "schemaVersion": "2.0.1",
  "updatedAt": "2018-10-31T13:05:09.510Z"
}